{
  "contractName": "ntt54_ERC20",
  "abi": [
    {
      "inputs": [
        {
          "internalType": "string",
          "name": "name",
          "type": "string"
        },
        {
          "internalType": "string",
          "name": "symbol",
          "type": "string"
        },
        {
          "internalType": "uint256",
          "name": "initialSupply",
          "type": "uint256"
        }
      ],
      "stateMutability": "nonpayable",
      "type": "constructor"
    },
    {
      "anonymous": false,
      "inputs": [
        {
          "indexed": true,
          "internalType": "address",
          "name": "owner",
          "type": "address"
        },
        {
          "indexed": true,
          "internalType": "address",
          "name": "spender",
          "type": "address"
        },
        {
          "indexed": false,
          "internalType": "uint256",
          "name": "value",
          "type": "uint256"
        }
      ],
      "name": "Approval",
      "type": "event"
    },
    {
      "anonymous": false,
      "inputs": [
        {
          "indexed": true,
          "internalType": "address",
          "name": "from",
          "type": "address"
        },
        {
          "indexed": true,
          "internalType": "address",
          "name": "to",
          "type": "address"
        },
        {
          "indexed": false,
          "internalType": "uint256",
          "name": "value",
          "type": "uint256"
        }
      ],
      "name": "Transfer",
      "type": "event"
    },
    {
      "inputs": [],
      "name": "admin",
      "outputs": [
        {
          "internalType": "address",
          "name": "",
          "type": "address"
        }
      ],
      "stateMutability": "view",
      "type": "function"
    },
    {
      "inputs": [
        {
          "internalType": "address",
          "name": "owner",
          "type": "address"
        },
        {
          "internalType": "address",
          "name": "spender",
          "type": "address"
        }
      ],
      "name": "allowance",
      "outputs": [
        {
          "internalType": "uint256",
          "name": "",
          "type": "uint256"
        }
      ],
      "stateMutability": "view",
      "type": "function"
    },
    {
      "inputs": [
        {
          "internalType": "address",
          "name": "spender",
          "type": "address"
        },
        {
          "internalType": "uint256",
          "name": "amount",
          "type": "uint256"
        }
      ],
      "name": "approve",
      "outputs": [
        {
          "internalType": "bool",
          "name": "",
          "type": "bool"
        }
      ],
      "stateMutability": "nonpayable",
      "type": "function"
    },
    {
      "inputs": [
        {
          "internalType": "address",
          "name": "account",
          "type": "address"
        }
      ],
      "name": "balanceOf",
      "outputs": [
        {
          "internalType": "uint256",
          "name": "",
          "type": "uint256"
        }
      ],
      "stateMutability": "view",
      "type": "function"
    },
    {
      "inputs": [],
      "name": "decimals",
      "outputs": [
        {
          "internalType": "uint8",
          "name": "",
          "type": "uint8"
        }
      ],
      "stateMutability": "view",
      "type": "function"
    },
    {
      "inputs": [
        {
          "internalType": "address",
          "name": "spender",
          "type": "address"
        },
        {
          "internalType": "uint256",
          "name": "subtractedValue",
          "type": "uint256"
        }
      ],
      "name": "decreaseAllowance",
      "outputs": [
        {
          "internalType": "bool",
          "name": "",
          "type": "bool"
        }
      ],
      "stateMutability": "nonpayable",
      "type": "function"
    },
    {
      "inputs": [
        {
          "internalType": "address",
          "name": "spender",
          "type": "address"
        },
        {
          "internalType": "uint256",
          "name": "addedValue",
          "type": "uint256"
        }
      ],
      "name": "increaseAllowance",
      "outputs": [
        {
          "internalType": "bool",
          "name": "",
          "type": "bool"
        }
      ],
      "stateMutability": "nonpayable",
      "type": "function"
    },
    {
      "inputs": [],
      "name": "name",
      "outputs": [
        {
          "internalType": "string",
          "name": "",
          "type": "string"
        }
      ],
      "stateMutability": "view",
      "type": "function"
    },
    {
      "inputs": [],
      "name": "symbol",
      "outputs": [
        {
          "internalType": "string",
          "name": "",
          "type": "string"
        }
      ],
      "stateMutability": "view",
      "type": "function"
    },
    {
      "inputs": [],
      "name": "totalSupply",
      "outputs": [
        {
          "internalType": "uint256",
          "name": "",
          "type": "uint256"
        }
      ],
      "stateMutability": "view",
      "type": "function"
    },
    {
      "inputs": [
        {
          "internalType": "address",
          "name": "recipient",
          "type": "address"
        },
        {
          "internalType": "uint256",
          "name": "amount",
          "type": "uint256"
        }
      ],
      "name": "transfer",
      "outputs": [
        {
          "internalType": "bool",
          "name": "",
          "type": "bool"
        }
      ],
      "stateMutability": "nonpayable",
      "type": "function"
    },
    {
      "inputs": [
        {
          "internalType": "address",
          "name": "sender",
          "type": "address"
        },
        {
          "internalType": "address",
          "name": "recipient",
          "type": "address"
        },
        {
          "internalType": "uint256",
          "name": "amount",
          "type": "uint256"
        }
      ],
      "name": "transferFrom",
      "outputs": [
        {
          "internalType": "bool",
          "name": "",
          "type": "bool"
        }
      ],
      "stateMutability": "nonpayable",
      "type": "function"
    },
    {
      "inputs": [
        {
          "internalType": "address",
          "name": "newAdmin",
          "type": "address"
        }
      ],
      "name": "changeAdmin",
      "outputs": [],
      "stateMutability": "nonpayable",
      "type": "function"
    },
    {
      "inputs": [
        {
          "internalType": "address",
          "name": "to",
          "type": "address"
        },
        {
          "internalType": "uint256",
          "name": "amount",
          "type": "uint256"
        }
      ],
      "name": "mint",
      "outputs": [],
      "stateMutability": "nonpayable",
      "type": "function"
    },
    {
      "inputs": [
        {
          "internalType": "uint256",
          "name": "amount",
          "type": "uint256"
        }
      ],
      "name": "burn",
      "outputs": [],
      "stateMutability": "nonpayable",
      "type": "function"
    }
  ],
  "bytecode": "0x60806040523480156200001157600080fd5b50604051620022b1380380620022b183398181016040528101906200003791906200038f565b828281600390805190602001906200005192919062000256565b5080600490805190602001906200006a92919062000256565b50505033600560006101000a81548173ffffffffffffffffffffffffffffffffffffffff021916908373ffffffffffffffffffffffffffffffffffffffff16021790555060008114620000ca57620000c93382620000d360201b60201c565b5b5050506200069b565b600073ffffffffffffffffffffffffffffffffffffffff168273ffffffffffffffffffffffffffffffffffffffff16141562000146576040517f08c379a00000000000000000000000000000000000000000000000000000000081526004016200013d906200046a565b60405180910390fd5b6200015a600083836200024c60201b60201c565b80600260008282546200016e919062000521565b92505081905550806000808473ffffffffffffffffffffffffffffffffffffffff1673ffffffffffffffffffffffffffffffffffffffff1681526020019081526020016000206000828254620001c5919062000521565b925050819055508173ffffffffffffffffffffffffffffffffffffffff16600073ffffffffffffffffffffffffffffffffffffffff167fddf252ad1be2c89b69c2b068fc378daa952ba7f163c4a11628f55a4df523b3ef836040516200022c91906200048c565b60405180910390a362000248600083836200025160201b60201c565b5050565b505050565b505050565b8280546200026490620005be565b90600052602060002090601f016020900481019282620002885760008555620002d4565b82601f10620002a357805160ff1916838001178555620002d4565b82800160010185558215620002d4579182015b82811115620002d3578251825591602001919060010190620002b6565b5b509050620002e39190620002e7565b5090565b5b8082111562000302576000816000905550600101620002e8565b5090565b60006200031d6200031784620004dd565b620004a9565b9050828152602081018484840111156200033657600080fd5b6200034384828562000588565b509392505050565b600082601f8301126200035d57600080fd5b81516200036f84826020860162000306565b91505092915050565b600081519050620003898162000681565b92915050565b600080600060608486031215620003a557600080fd5b600084015167ffffffffffffffff811115620003c057600080fd5b620003ce868287016200034b565b935050602084015167ffffffffffffffff811115620003ec57600080fd5b620003fa868287016200034b565b92505060406200040d8682870162000378565b9150509250925092565b600062000426601f8362000510565b91507f45524332303a206d696e7420746f20746865207a65726f2061646472657373006000830152602082019050919050565b62000464816200057e565b82525050565b60006020820190508181036000830152620004858162000417565b9050919050565b6000602082019050620004a3600083018462000459565b92915050565b6000604051905081810181811067ffffffffffffffff82111715620004d357620004d262000652565b5b8060405250919050565b600067ffffffffffffffff821115620004fb57620004fa62000652565b5b601f19601f8301169050602081019050919050565b600082825260208201905092915050565b60006200052e826200057e565b91506200053b836200057e565b9250827fffffffffffffffffffffffffffffffffffffffffffffffffffffffffffffffff03821115620005735762000572620005f4565b5b828201905092915050565b6000819050919050565b60005b83811015620005a85780820151818401526020810190506200058b565b83811115620005b8576000848401525b50505050565b60006002820490506001821680620005d757607f821691505b60208210811415620005ee57620005ed62000623565b5b50919050565b7f4e487b7100000000000000000000000000000000000000000000000000000000600052601160045260246000fd5b7f4e487b7100000000000000000000000000000000000000000000000000000000600052602260045260246000fd5b7f4e487b7100000000000000000000000000000000000000000000000000000000600052604160045260246000fd5b6200068c816200057e565b81146200069857600080fd5b50565b611c0680620006ab6000396000f3fe608060405234801561001057600080fd5b50600436106100f55760003560e01c806342966c6811610097578063a457c2d711610066578063a457c2d714610286578063a9059cbb146102b6578063dd62ed3e146102e6578063f851a44014610316576100f5565b806342966c681461020057806370a082311461021c5780638f2839701461024c57806395d89b4114610268576100f5565b806323b872dd116100d357806323b872dd14610166578063313ce5671461019657806339509351146101b457806340c10f19146101e4576100f5565b806306fdde03146100fa578063095ea7b31461011857806318160ddd14610148575b600080fd5b610102610334565b60405161010f919061181b565b60405180910390f35b610132600480360381019061012d91906112cf565b6103c6565b60405161013f9190611800565b60405180910390f35b6101506103e4565b60405161015d919061199d565b60405180910390f35b610180600480360381019061017b9190611280565b6103ee565b60405161018d9190611800565b60405180910390f35b61019e6104e6565b6040516101ab91906119b8565b60405180910390f35b6101ce60048036038101906101c991906112cf565b6104ef565b6040516101db9190611800565b60405180910390f35b6101fe60048036038101906101f991906112cf565b61059b565b005b61021a6004803603810190610215919061130b565b610639565b005b6102366004803603810190610231919061121b565b6106f8565b604051610243919061199d565b60405180910390f35b6102666004803603810190610261919061121b565b610740565b005b610270610814565b60405161027d919061181b565b60405180910390f35b6102a0600480360381019061029b91906112cf565b6108a6565b6040516102ad9190611800565b60405180910390f35b6102d060048036038101906102cb91906112cf565b610991565b6040516102dd9190611800565b60405180910390f35b61030060048036038101906102fb9190611244565b6109af565b60405161030d919061199d565b60405180910390f35b61031e610a36565b60405161032b91906117e5565b60405180910390f35b60606003805461034390611b01565b80601f016020809104026020016040519081016040528092919081815260200182805461036f90611b01565b80156103bc5780601f10610391576101008083540402835291602001916103bc565b820191906000526020600020905b81548152906001019060200180831161039f57829003601f168201915b5050505050905090565b60006103da6103d3610a5c565b8484610a64565b6001905092915050565b6000600254905090565b60006103fb848484610c2f565b6000600160008673ffffffffffffffffffffffffffffffffffffffff1673ffffffffffffffffffffffffffffffffffffffff1681526020019081526020016000206000610446610a5c565b73ffffffffffffffffffffffffffffffffffffffff1673ffffffffffffffffffffffffffffffffffffffff168152602001908152602001600020549050828110156104c6576040517f08c379a00000000000000000000000000000000000000000000000000000000081526004016104bd906118dd565b60405180910390fd5b6104da856104d2610a5c565b858403610a64565b60019150509392505050565b60006012905090565b60006105916104fc610a5c565b84846001600061050a610a5c565b73ffffffffffffffffffffffffffffffffffffffff1673ffffffffffffffffffffffffffffffffffffffff16815260200190815260200160002060008873ffffffffffffffffffffffffffffffffffffffff1673ffffffffffffffffffffffffffffffffffffffff1681526020019081526020016000205461058c91906119ef565b610a64565b6001905092915050565b600560009054906101000a900473ffffffffffffffffffffffffffffffffffffffff1673ffffffffffffffffffffffffffffffffffffffff163373ffffffffffffffffffffffffffffffffffffffff161461062b576040517f08c379a00000000000000000000000000000000000000000000000000000000081526004016106229061185d565b60405180910390fd5b6106358282610eb0565b5050565b600560009054906101000a900473ffffffffffffffffffffffffffffffffffffffff1673ffffffffffffffffffffffffffffffffffffffff163373ffffffffffffffffffffffffffffffffffffffff16146106c9576040517f08c379a00000000000000000000000000000000000000000000000000000000081526004016106c09061185d565b60405180910390fd5b6106f5600560009054906101000a900473ffffffffffffffffffffffffffffffffffffffff1682611010565b50565b60008060008373ffffffffffffffffffffffffffffffffffffffff1673ffffffffffffffffffffffffffffffffffffffff168152602001908152602001600020549050919050565b600560009054906101000a900473ffffffffffffffffffffffffffffffffffffffff1673ffffffffffffffffffffffffffffffffffffffff163373ffffffffffffffffffffffffffffffffffffffff16146107d0576040517f08c379a00000000000000000000000000000000000000000000000000000000081526004016107c79061185d565b60405180910390fd5b80600560006101000a81548173ffffffffffffffffffffffffffffffffffffffff021916908373ffffffffffffffffffffffffffffffffffffffff16021790555050565b60606004805461082390611b01565b80601f016020809104026020016040519081016040528092919081815260200182805461084f90611b01565b801561089c5780601f106108715761010080835404028352916020019161089c565b820191906000526020600020905b81548152906001019060200180831161087f57829003601f168201915b5050505050905090565b600080600160006108b5610a5c565b73ffffffffffffffffffffffffffffffffffffffff1673ffffffffffffffffffffffffffffffffffffffff16815260200190815260200160002060008573ffffffffffffffffffffffffffffffffffffffff1673ffffffffffffffffffffffffffffffffffffffff16815260200190815260200160002054905082811015610972576040517f08c379a00000000000000000000000000000000000000000000000000000000081526004016109699061195d565b60405180910390fd5b61098661097d610a5c565b85858403610a64565b600191505092915050565b60006109a561099e610a5c565b8484610c2f565b6001905092915050565b6000600160008473ffffffffffffffffffffffffffffffffffffffff1673ffffffffffffffffffffffffffffffffffffffff16815260200190815260200160002060008373ffffffffffffffffffffffffffffffffffffffff1673ffffffffffffffffffffffffffffffffffffffff16815260200190815260200160002054905092915050565b600560009054906101000a900473ffffffffffffffffffffffffffffffffffffffff1681565b600033905090565b600073ffffffffffffffffffffffffffffffffffffffff168373ffffffffffffffffffffffffffffffffffffffff161415610ad4576040517f08c379a0000000000000000000000000000000000000000000000000000000008152600401610acb9061193d565b60405180910390fd5b600073ffffffffffffffffffffffffffffffffffffffff168273ffffffffffffffffffffffffffffffffffffffff161415610b44576040517f08c379a0000000000000000000000000000000000000000000000000000000008152600401610b3b9061189d565b60405180910390fd5b80600160008573ffffffffffffffffffffffffffffffffffffffff1673ffffffffffffffffffffffffffffffffffffffff16815260200190815260200160002060008473ffffffffffffffffffffffffffffffffffffffff1673ffffffffffffffffffffffffffffffffffffffff168152602001908152602001600020819055508173ffffffffffffffffffffffffffffffffffffffff168373ffffffffffffffffffffffffffffffffffffffff167f8c5be1e5ebec7d5bd14f71427d1e84f3dd0314c0f7b2291e5b200ac8c7c3b92583604051610c22919061199d565b60405180910390a3505050565b600073ffffffffffffffffffffffffffffffffffffffff168373ffffffffffffffffffffffffffffffffffffffff161415610c9f576040517f08c379a0000000000000000000000000000000000000000000000000000000008152600401610c969061191d565b60405180910390fd5b600073ffffffffffffffffffffffffffffffffffffffff168273ffffffffffffffffffffffffffffffffffffffff161415610d0f576040517f08c379a0000000000000000000000000000000000000000000000000000000008152600401610d069061183d565b60405180910390fd5b610d1a8383836111e7565b60008060008573ffffffffffffffffffffffffffffffffffffffff1673ffffffffffffffffffffffffffffffffffffffff16815260200190815260200160002054905081811015610da0576040517f08c379a0000000000000000000000000000000000000000000000000000000008152600401610d97906118bd565b60405180910390fd5b8181036000808673ffffffffffffffffffffffffffffffffffffffff1673ffffffffffffffffffffffffffffffffffffffff16815260200190815260200160002081905550816000808573ffffffffffffffffffffffffffffffffffffffff1673ffffffffffffffffffffffffffffffffffffffff1681526020019081526020016000206000828254610e3391906119ef565b925050819055508273ffffffffffffffffffffffffffffffffffffffff168473ffffffffffffffffffffffffffffffffffffffff167fddf252ad1be2c89b69c2b068fc378daa952ba7f163c4a11628f55a4df523b3ef84604051610e97919061199d565b60405180910390a3610eaa8484846111ec565b50505050565b600073ffffffffffffffffffffffffffffffffffffffff168273ffffffffffffffffffffffffffffffffffffffff161415610f20576040517f08c379a0000000000000000000000000000000000000000000000000000000008152600401610f179061197d565b60405180910390fd5b610f2c600083836111e7565b8060026000828254610f3e91906119ef565b92505081905550806000808473ffffffffffffffffffffffffffffffffffffffff1673ffffffffffffffffffffffffffffffffffffffff1681526020019081526020016000206000828254610f9391906119ef565b925050819055508173ffffffffffffffffffffffffffffffffffffffff16600073ffffffffffffffffffffffffffffffffffffffff167fddf252ad1be2c89b69c2b068fc378daa952ba7f163c4a11628f55a4df523b3ef83604051610ff8919061199d565b60405180910390a361100c600083836111ec565b5050565b600073ffffffffffffffffffffffffffffffffffffffff168273ffffffffffffffffffffffffffffffffffffffff161415611080576040517f08c379a0000000000000000000000000000000000000000000000000000000008152600401611077906118fd565b60405180910390fd5b61108c826000836111e7565b60008060008473ffffffffffffffffffffffffffffffffffffffff1673ffffffffffffffffffffffffffffffffffffffff16815260200190815260200160002054905081811015611112576040517f08c379a00000000000000000000000000000000000000000000000000000000081526004016111099061187d565b60405180910390fd5b8181036000808573ffffffffffffffffffffffffffffffffffffffff1673ffffffffffffffffffffffffffffffffffffffff1681526020019081526020016000208190555081600260008282546111699190611a45565b92505081905550600073ffffffffffffffffffffffffffffffffffffffff168373ffffffffffffffffffffffffffffffffffffffff167fddf252ad1be2c89b69c2b068fc378daa952ba7f163c4a11628f55a4df523b3ef846040516111ce919061199d565b60405180910390a36111e2836000846111ec565b505050565b505050565b505050565b60008135905061120081611ba2565b92915050565b60008135905061121581611bb9565b92915050565b60006020828403121561122d57600080fd5b600061123b848285016111f1565b91505092915050565b6000806040838503121561125757600080fd5b6000611265858286016111f1565b9250506020611276858286016111f1565b9150509250929050565b60008060006060848603121561129557600080fd5b60006112a3868287016111f1565b93505060206112b4868287016111f1565b92505060406112c586828701611206565b9150509250925092565b600080604083850312156112e257600080fd5b60006112f0858286016111f1565b925050602061130185828601611206565b9150509250929050565b60006020828403121561131d57600080fd5b600061132b84828501611206565b91505092915050565b61133d81611a79565b82525050565b61134c81611a8b565b82525050565b600061135d826119d3565b61136781856119de565b9350611377818560208601611ace565b61138081611b91565b840191505092915050565b60006113986023836119de565b91507f45524332303a207472616e7366657220746f20746865207a65726f206164647260008301527f65737300000000000000000000000000000000000000000000000000000000006020830152604082019050919050565b60006113fe6028836119de565b91507f6f6e6c792061646d696e20697320616c6c6f77656420746869732066756e637460008301527f696f6e616c6974790000000000000000000000000000000000000000000000006020830152604082019050919050565b60006114646022836119de565b91507f45524332303a206275726e20616d6f756e7420657863656564732062616c616e60008301527f63650000000000000000000000000000000000000000000000000000000000006020830152604082019050919050565b60006114ca6022836119de565b91507f45524332303a20617070726f766520746f20746865207a65726f20616464726560008301527f73730000000000000000000000000000000000000000000000000000000000006020830152604082019050919050565b60006115306026836119de565b91507f45524332303a207472616e7366657220616d6f756e742065786365656473206260008301527f616c616e636500000000000000000000000000000000000000000000000000006020830152604082019050919050565b60006115966028836119de565b91507f45524332303a207472616e7366657220616d6f756e742065786365656473206160008301527f6c6c6f77616e63650000000000000000000000000000000000000000000000006020830152604082019050919050565b60006115fc6021836119de565b91507f45524332303a206275726e2066726f6d20746865207a65726f2061646472657360008301527f73000000000000000000000000000000000000000000000000000000000000006020830152604082019050919050565b60006116626025836119de565b91507f45524332303a207472616e736665722066726f6d20746865207a65726f20616460008301527f64726573730000000000000000000000000000000000000000000000000000006020830152604082019050919050565b60006116c86024836119de565b91507f45524332303a20617070726f76652066726f6d20746865207a65726f2061646460008301527f72657373000000000000000000000000000000000000000000000000000000006020830152604082019050919050565b600061172e6025836119de565b91507f45524332303a2064656372656173656420616c6c6f77616e63652062656c6f7760008301527f207a65726f0000000000000000000000000000000000000000000000000000006020830152604082019050919050565b6000611794601f836119de565b91507f45524332303a206d696e7420746f20746865207a65726f2061646472657373006000830152602082019050919050565b6117d081611ab7565b82525050565b6117df81611ac1565b82525050565b60006020820190506117fa6000830184611334565b92915050565b60006020820190506118156000830184611343565b92915050565b600060208201905081810360008301526118358184611352565b905092915050565b600060208201905081810360008301526118568161138b565b9050919050565b60006020820190508181036000830152611876816113f1565b9050919050565b6000602082019050818103600083015261189681611457565b9050919050565b600060208201905081810360008301526118b6816114bd565b9050919050565b600060208201905081810360008301526118d681611523565b9050919050565b600060208201905081810360008301526118f681611589565b9050919050565b60006020820190508181036000830152611916816115ef565b9050919050565b6000602082019050818103600083015261193681611655565b9050919050565b60006020820190508181036000830152611956816116bb565b9050919050565b6000602082019050818103600083015261197681611721565b9050919050565b6000602082019050818103600083015261199681611787565b9050919050565b60006020820190506119b260008301846117c7565b92915050565b60006020820190506119cd60008301846117d6565b92915050565b600081519050919050565b600082825260208201905092915050565b60006119fa82611ab7565b9150611a0583611ab7565b9250827fffffffffffffffffffffffffffffffffffffffffffffffffffffffffffffffff03821115611a3a57611a39611b33565b5b828201905092915050565b6000611a5082611ab7565b9150611a5b83611ab7565b925082821015611a6e57611a6d611b33565b5b828203905092915050565b6000611a8482611a97565b9050919050565b60008115159050919050565b600073ffffffffffffffffffffffffffffffffffffffff82169050919050565b6000819050919050565b600060ff82169050919050565b60005b83811015611aec578082015181840152602081019050611ad1565b83811115611afb576000848401525b50505050565b60006002820490506001821680611b1957607f821691505b60208210811415611b2d57611b2c611b62565b5b50919050565b7f4e487b7100000000000000000000000000000000000000000000000000000000600052601160045260246000fd5b7f4e487b7100000000000000000000000000000000000000000000000000000000600052602260045260246000fd5b6000601f19601f8301169050919050565b611bab81611a79565b8114611bb657600080fd5b50565b611bc281611ab7565b8114611bcd57600080fd5b5056fea26469706673582212201e7a0e4da868f21aae419686458dbcf2fbde2afab0b3bd4fff1636246de0cbfd64736f6c63430008000033",
  "immutableReferences": {},
  "source": "// SPDX-License-Identifier: MIT\npragma solidity ^0.8.0;\n\nimport \"@openzeppelin/contracts/token/ERC20/ERC20.sol\";\n\n///@title Creation of an ERC20 \n///@author ntt54\ncontract ntt54_ERC20 is ERC20 {\n    \n    address public admin;\n\n    modifier onlyAdmin {\n        require(msg.sender==admin, \"only admin is allowed this functionality\");\n        _;\n    }\n\n    /** \n        @dev set the admin, name and symbol of token. optionally set the intial supply to be minted to admin\n        @param name Name of ERC20 \n        @param symbol Ticker of ERC20 \n        @param initialSupply The intial supply of ERC20 \n    */\n    constructor(string memory name, string memory symbol, uint initialSupply) ERC20(name,symbol)  {\n        admin = msg.sender;\n\n        if (initialSupply!=0)\n        {\n            _mint(msg.sender, initialSupply);     \n        }\n    }\n\n    /**\n        @notice only the admin account can call this function to pass ownership\n        @dev set new admin like a multisig admin. \n        @param newAdmin The new admin of the token\n    */\n    function changeAdmin(address newAdmin) external onlyAdmin {\n        admin = newAdmin;\n    }\n\n    /**\n        @notice Only the admin account can mint new tokens\n        @dev mint new tokens. \n        @param to The address to mint the new tokens to\n        @param amount Then number of new tokens to mint\n    */\n    function mint(address to, uint amount) external onlyAdmin {\n        _mint(to, amount);\n    }\n\n    /**\n        @notice Only the admin account can burn tokens and only tokens owned by admin\n        @dev burn tokens that admin owns\n        @param amount Then number of tokens to burn\n    */\n    function burn(uint amount) external onlyAdmin {\n        _burn(admin, amount);\n    }\n     \n}",
  "sourcePath": "/Users/angelos-imac/Dropbox/Cryptos/Darwinia/ntt54_Oracle/ntt54_Oracle_truffle/contracts/ntt54_ERC20.sol",
  "compiler": {
    "name": "solc",
    "version": "0.8.0+commit.c7dfd78e.Emscripten.clang"
  },
  "schemaVersion": "3.4.5",
  "updatedAt": "2022-02-24T11:55:32.869Z",
  "devdoc": {
    "author": "ntt54",
    "kind": "dev",
    "methods": {
      "allowance(address,address)": {
        "details": "See {IERC20-allowance}."
      },
      "approve(address,uint256)": {
        "details": "See {IERC20-approve}. Requirements: - `spender` cannot be the zero address."
      },
      "balanceOf(address)": {
        "details": "See {IERC20-balanceOf}."
      },
      "burn(uint256)": {
        "details": "burn tokens that admin owns",
        "params": {
          "amount": "Then number of tokens to burn"
        }
      },
      "changeAdmin(address)": {
        "details": "set new admin like a multisig admin. ",
        "params": {
          "newAdmin": "The new admin of the token"
        }
      },
      "constructor": {
        "details": "set the admin, name and symbol of token. optionally set the intial supply to be minted to admin",
        "params": {
          "initialSupply": "The intial supply of ERC20 ",
          "name": "Name of ERC20 ",
          "symbol": "Ticker of ERC20 "
        }
      },
      "decimals()": {
        "details": "Returns the number of decimals used to get its user representation. For example, if `decimals` equals `2`, a balance of `505` tokens should be displayed to a user as `5.05` (`505 / 10 ** 2`). Tokens usually opt for a value of 18, imitating the relationship between Ether and Wei. This is the value {ERC20} uses, unless this function is overridden; NOTE: This information is only used for _display_ purposes: it in no way affects any of the arithmetic of the contract, including {IERC20-balanceOf} and {IERC20-transfer}."
      },
      "decreaseAllowance(address,uint256)": {
        "details": "Atomically decreases the allowance granted to `spender` by the caller. This is an alternative to {approve} that can be used as a mitigation for problems described in {IERC20-approve}. Emits an {Approval} event indicating the updated allowance. Requirements: - `spender` cannot be the zero address. - `spender` must have allowance for the caller of at least `subtractedValue`."
      },
      "increaseAllowance(address,uint256)": {
        "details": "Atomically increases the allowance granted to `spender` by the caller. This is an alternative to {approve} that can be used as a mitigation for problems described in {IERC20-approve}. Emits an {Approval} event indicating the updated allowance. Requirements: - `spender` cannot be the zero address."
      },
      "mint(address,uint256)": {
        "details": "mint new tokens. ",
        "params": {
          "amount": "Then number of new tokens to mint",
          "to": "The address to mint the new tokens to"
        }
      },
      "name()": {
        "details": "Returns the name of the token."
      },
      "symbol()": {
        "details": "Returns the symbol of the token, usually a shorter version of the name."
      },
      "totalSupply()": {
        "details": "See {IERC20-totalSupply}."
      },
      "transfer(address,uint256)": {
        "details": "See {IERC20-transfer}. Requirements: - `recipient` cannot be the zero address. - the caller must have a balance of at least `amount`."
      },
      "transferFrom(address,address,uint256)": {
        "details": "See {IERC20-transferFrom}. Emits an {Approval} event indicating the updated allowance. This is not required by the EIP. See the note at the beginning of {ERC20}. Requirements: - `sender` and `recipient` cannot be the zero address. - `sender` must have a balance of at least `amount`. - the caller must have allowance for ``sender``'s tokens of at least `amount`."
      }
    },
    "title": "Creation of an ERC20 ",
    "version": 1
  },
  "userdoc": {
    "kind": "user",
    "methods": {
      "burn(uint256)": {
        "notice": "Only the admin account can burn tokens and only tokens owned by admin"
      },
      "changeAdmin(address)": {
        "notice": "only the admin account can call this function to pass ownership"
      },
      "mint(address,uint256)": {
        "notice": "Only the admin account can mint new tokens"
      }
    },
    "version": 1
  }
}