{
  "contractName": "ntt54_Factory",
  "abi": [
    {
      "inputs": [
        {
          "internalType": "address",
          "name": "_admin",
          "type": "address"
        }
      ],
      "stateMutability": "nonpayable",
      "type": "constructor"
    },
    {
      "inputs": [],
      "name": "admin",
      "outputs": [
        {
          "internalType": "address",
          "name": "",
          "type": "address"
        }
      ],
      "stateMutability": "view",
      "type": "function"
    },
    {
      "inputs": [
        {
          "internalType": "uint256",
          "name": "",
          "type": "uint256"
        }
      ],
      "name": "tokenIDs",
      "outputs": [
        {
          "internalType": "bytes32",
          "name": "",
          "type": "bytes32"
        }
      ],
      "stateMutability": "view",
      "type": "function"
    },
    {
      "inputs": [
        {
          "internalType": "bytes32",
          "name": "",
          "type": "bytes32"
        }
      ],
      "name": "tokens",
      "outputs": [
        {
          "internalType": "bytes32",
          "name": "tokenID",
          "type": "bytes32"
        },
        {
          "internalType": "bytes8",
          "name": "tokenTicker",
          "type": "bytes8"
        },
        {
          "internalType": "uint256",
          "name": "tokenSupply",
          "type": "uint256"
        },
        {
          "internalType": "address",
          "name": "tokenAddress",
          "type": "address"
        }
      ],
      "stateMutability": "view",
      "type": "function"
    },
    {
      "inputs": [],
      "name": "getAllTokens",
      "outputs": [
        {
          "components": [
            {
              "internalType": "bytes32",
              "name": "tokenID",
              "type": "bytes32"
            },
            {
              "internalType": "bytes8",
              "name": "tokenTicker",
              "type": "bytes8"
            },
            {
              "internalType": "uint256",
              "name": "tokenSupply",
              "type": "uint256"
            },
            {
              "internalType": "address",
              "name": "tokenAddress",
              "type": "address"
            }
          ],
          "internalType": "struct ntt54_Factory.Token[]",
          "name": "",
          "type": "tuple[]"
        }
      ],
      "stateMutability": "view",
      "type": "function"
    },
    {
      "inputs": [
        {
          "internalType": "bytes32[]",
          "name": "names",
          "type": "bytes32[]"
        },
        {
          "internalType": "bytes8[]",
          "name": "tickers",
          "type": "bytes8[]"
        },
        {
          "internalType": "uint256[]",
          "name": "initialSupply",
          "type": "uint256[]"
        }
      ],
      "name": "initialERC20Mint",
      "outputs": [],
      "stateMutability": "nonpayable",
      "type": "function"
    },
    {
      "inputs": [
        {
          "internalType": "address",
          "name": "newAdmin",
          "type": "address"
        },
        {
          "internalType": "bytes32",
          "name": "tokID",
          "type": "bytes32"
        }
      ],
      "name": "changeAdminOfERC20",
      "outputs": [],
      "stateMutability": "nonpayable",
      "type": "function"
    },
    {
      "inputs": [
        {
          "internalType": "address",
          "name": "spender",
          "type": "address"
        }
      ],
      "name": "approveAddress",
      "outputs": [],
      "stateMutability": "nonpayable",
      "type": "function"
    }
  ],
  "bytecode": "0x60806040523480156200001157600080fd5b5060405162003f5d38038062003f5d833981810160405281019062000037919062000095565b806000806101000a81548173ffffffffffffffffffffffffffffffffffffffff021916908373ffffffffffffffffffffffffffffffffffffffff160217905550506200010f565b6000815190506200008f81620000f5565b92915050565b600060208284031215620000a857600080fd5b6000620000b8848285016200007e565b91505092915050565b6000620000ce82620000d5565b9050919050565b600073ffffffffffffffffffffffffffffffffffffffff82169050919050565b6200010081620000c1565b81146200010c57600080fd5b50565b613e3e806200011f6000396000f3fe60806040523480156200001157600080fd5b5060043610620000885760003560e01c80638b0e513811620000635780638b0e51381462000105578063904194a31462000125578063f851a440146200015e578063fabf657a14620001805762000088565b806306f356dc146200008d5780632a5c792a14620000c35780635a171efa14620000e5575b600080fd5b620000ab6004803603810190620000a5919062001387565b620001a0565b604051620000ba919062001779565b60405180910390f35b620000cd620001c5565b604051620000dc919062001755565b60405180910390f35b620001036004803603810190620000fd91906200128e565b620003dd565b005b6200012360048036038101906200011d91906200124d565b6200093a565b005b6200014360048036038101906200013d91906200135b565b62000c13565b60405162000155949392919062001796565b60405180910390f35b6200016862000c70565b6040516200017791906200170b565b60405180910390f35b6200019e6004803603810190620001989190620011f5565b62000c94565b005b60028181548110620001b157600080fd5b906000526020600020016000915090505481565b6060600060028054905067ffffffffffffffff8111156200020f577f4e487b7100000000000000000000000000000000000000000000000000000000600052604160045260246000fd5b6040519080825280602002602001820160405280156200024c57816020015b6200023862000f04565b8152602001906001900390816200022e5790505b50905060005b600280549050811015620003d55760016000600283815481106200029f577f4e487b7100000000000000000000000000000000000000000000000000000000600052603260045260246000fd5b90600052602060002001548152602001908152602001600020604051806080016040529081600082015481526020016001820160009054906101000a900460c01b77ffffffffffffffffffffffffffffffffffffffffffffffff191677ffffffffffffffffffffffffffffffffffffffffffffffff19168152602001600282015481526020016003820160009054906101000a900473ffffffffffffffffffffffffffffffffffffffff1673ffffffffffffffffffffffffffffffffffffffff1673ffffffffffffffffffffffffffffffffffffffff1681525050828281518110620003b4577f4e487b7100000000000000000000000000000000000000000000000000000000600052603260045260246000fd5b60200260200101819052508080620003cc9062001a60565b91505062000252565b508091505090565b60008054906101000a900473ffffffffffffffffffffffffffffffffffffffff1673ffffffffffffffffffffffffffffffffffffffff163373ffffffffffffffffffffffffffffffffffffffff16146200046e576040517f08c379a000000000000000000000000000000000000000000000000000000000815260040162000465906200182e565b60405180910390fd5b8151835114801562000481575080518351145b620004c3576040517f08c379a0000000000000000000000000000000000000000000000000000000008152600401620004ba9062001850565b60405180910390fd5b60005b83518110156200093457600073ffffffffffffffffffffffffffffffffffffffff166001600086848151811062000526577f4e487b7100000000000000000000000000000000000000000000000000000000600052603260045260246000fd5b6020026020010151815260200190815260200160002060030160009054906101000a900473ffffffffffffffffffffffffffffffffffffffff1673ffffffffffffffffffffffffffffffffffffffff1614156200091e576000848281518110620005b9577f4e487b7100000000000000000000000000000000000000000000000000000000600052603260045260246000fd5b6020026020010151604051602001620005d39190620016d1565b6040516020818303038152906040528483815181106200061c577f4e487b7100000000000000000000000000000000000000000000000000000000600052603260045260246000fd5b6020026020010151604051602001620006369190620016ee565b6040516020818303038152906040528484815181106200067f577f4e487b7100000000000000000000000000000000000000000000000000000000600052603260045260246000fd5b6020026020010151604051620006959062000f60565b620006a393929190620017e3565b604051809103906000f080158015620006c0573d6000803e3d6000fd5b509050604051806080016040528086848151811062000708577f4e487b7100000000000000000000000000000000000000000000000000000000600052603260045260246000fd5b602002602001015181526020018584815181106200074f577f4e487b7100000000000000000000000000000000000000000000000000000000600052603260045260246000fd5b602002602001015177ffffffffffffffffffffffffffffffffffffffffffffffff19168152602001848481518110620007b1577f4e487b7100000000000000000000000000000000000000000000000000000000600052603260045260246000fd5b602002602001015181526020018273ffffffffffffffffffffffffffffffffffffffff168152506001600087858151811062000816577f4e487b7100000000000000000000000000000000000000000000000000000000600052603260045260246000fd5b602002602001015181526020019081526020016000206000820151816000015560208201518160010160006101000a81548167ffffffffffffffff021916908360c01c02179055506040820151816002015560608201518160030160006101000a81548173ffffffffffffffffffffffffffffffffffffffff021916908373ffffffffffffffffffffffffffffffffffffffff1602179055509050506002858381518110620008ee577f4e487b7100000000000000000000000000000000000000000000000000000000600052603260045260246000fd5b60200260200101519080600181540180825580915050600190039060005260206000200160009091909190915055505b80806200092b9062001a60565b915050620004c6565b50505050565b60008054906101000a900473ffffffffffffffffffffffffffffffffffffffff1673ffffffffffffffffffffffffffffffffffffffff163373ffffffffffffffffffffffffffffffffffffffff1614620009cb576040517f08c379a0000000000000000000000000000000000000000000000000000000008152600401620009c2906200182e565b60405180910390fd5b600073ffffffffffffffffffffffffffffffffffffffff166001600083815260200190815260200160002060030160009054906101000a900473ffffffffffffffffffffffffffffffffffffffff1673ffffffffffffffffffffffffffffffffffffffff16141562000a74576040517f08c379a000000000000000000000000000000000000000000000000000000000815260040162000a6b9062001872565b60405180910390fd5b60006001600083815260200190815260200160002060030160009054906101000a900473ffffffffffffffffffffffffffffffffffffffff1690503073ffffffffffffffffffffffffffffffffffffffff168173ffffffffffffffffffffffffffffffffffffffff1663f851a4406040518163ffffffff1660e01b815260040160206040518083038186803b15801562000b0d57600080fd5b505afa15801562000b22573d6000803e3d6000fd5b505050506040513d601f19601f8201168201806040525081019062000b48919062001221565b73ffffffffffffffffffffffffffffffffffffffff1614801562000b9857503073ffffffffffffffffffffffffffffffffffffffff168373ffffffffffffffffffffffffffffffffffffffff1614155b1562000c0e578073ffffffffffffffffffffffffffffffffffffffff16638f283970846040518263ffffffff1660e01b815260040162000bd991906200170b565b600060405180830381600087803b15801562000bf457600080fd5b505af115801562000c09573d6000803e3d6000fd5b505050505b505050565b60016020528060005260406000206000915090508060000154908060010160009054906101000a900460c01b908060020154908060030160009054906101000a900473ffffffffffffffffffffffffffffffffffffffff16905084565b60008054906101000a900473ffffffffffffffffffffffffffffffffffffffff1681565b60008054906101000a900473ffffffffffffffffffffffffffffffffffffffff1673ffffffffffffffffffffffffffffffffffffffff163373ffffffffffffffffffffffffffffffffffffffff161462000d25576040517f08c379a000000000000000000000000000000000000000000000000000000000815260040162000d1c906200182e565b60405180910390fd5b60005b60028054905081101562000f00576000600160006002848154811062000d77577f4e487b7100000000000000000000000000000000000000000000000000000000600052603260045260246000fd5b9060005260206000200154815260200190815260200160002060030160009054906101000a900473ffffffffffffffffffffffffffffffffffffffff16905060008173ffffffffffffffffffffffffffffffffffffffff166370a08231306040518263ffffffff1660e01b815260040162000df391906200170b565b60206040518083038186803b15801562000e0c57600080fd5b505afa15801562000e21573d6000803e3d6000fd5b505050506040513d601f19601f8201168201806040525081019062000e479190620013b3565b9050600081111562000ee8578173ffffffffffffffffffffffffffffffffffffffff1663095ea7b385836040518363ffffffff1660e01b815260040162000e9092919062001728565b602060405180830381600087803b15801562000eab57600080fd5b505af115801562000ec0573d6000803e3d6000fd5b505050506040513d601f19601f8201168201806040525081019062000ee691906200132f565b505b5050808062000ef79062001a60565b91505062000d28565b5050565b604051806080016040528060008019168152602001600077ffffffffffffffffffffffffffffffffffffffffffffffff1916815260200160008152602001600073ffffffffffffffffffffffffffffffffffffffff1681525090565b6122558062001bb483390190565b600062000f8562000f7f84620018c8565b62001894565b9050808382526020820190508285602086028201111562000fa557600080fd5b60005b8581101562000fd9578162000fbe888262001199565b84526020840193506020830192505060018101905062000fa8565b5050509392505050565b600062000ffa62000ff484620018f7565b62001894565b905080838252602082019050828560208602820111156200101a57600080fd5b60005b858110156200104e5781620010338882620011b0565b8452602084019350602083019250506001810190506200101d565b5050509392505050565b60006200106f620010698462001926565b62001894565b905080838252602082019050828560208602820111156200108f57600080fd5b60005b85811015620010c35781620010a88882620011c7565b84526020840193506020830192505060018101905062001092565b5050509392505050565b600081359050620010de8162001b31565b92915050565b600081519050620010f58162001b31565b92915050565b600082601f8301126200110d57600080fd5b81356200111f84826020860162000f6e565b91505092915050565b600082601f8301126200113a57600080fd5b81356200114c84826020860162000fe3565b91505092915050565b600082601f8301126200116757600080fd5b81356200117984826020860162001058565b91505092915050565b600081519050620011938162001b4b565b92915050565b600081359050620011aa8162001b65565b92915050565b600081359050620011c18162001b7f565b92915050565b600081359050620011d88162001b99565b92915050565b600081519050620011ef8162001b99565b92915050565b6000602082840312156200120857600080fd5b60006200121884828501620010cd565b91505092915050565b6000602082840312156200123457600080fd5b60006200124484828501620010e4565b91505092915050565b600080604083850312156200126157600080fd5b60006200127185828601620010cd565b9250506020620012848582860162001199565b9150509250929050565b600080600060608486031215620012a457600080fd5b600084013567ffffffffffffffff811115620012bf57600080fd5b620012cd86828701620010fb565b935050602084013567ffffffffffffffff811115620012eb57600080fd5b620012f98682870162001128565b925050604084013567ffffffffffffffff8111156200131757600080fd5b620013258682870162001155565b9150509250925092565b6000602082840312156200134257600080fd5b6000620013528482850162001182565b91505092915050565b6000602082840312156200136e57600080fd5b60006200137e8482850162001199565b91505092915050565b6000602082840312156200139a57600080fd5b6000620013aa84828501620011c7565b91505092915050565b600060208284031215620013c657600080fd5b6000620013d684828501620011de565b91505092915050565b6000620013ed838362001652565b60808301905092915050565b6200140481620019aa565b82525050565b6200141581620019aa565b82525050565b6000620014288262001965565b62001434818562001988565b9350620014418362001955565b8060005b83811015620014785781516200145c8882620013df565b975062001469836200197b565b92505060018101905062001445565b5085935050505092915050565b6200149081620019ca565b82525050565b620014a181620019ca565b82525050565b620014bc620014b682620019ca565b62001aae565b82525050565b620014cd81620019d4565b82525050565b620014de81620019d4565b82525050565b620014f9620014f382620019d4565b62001ab8565b82525050565b60006200150c8262001970565b62001518818562001999565b93506200152a81856020860162001a2a565b620015358162001b20565b840191505092915050565b60006200154f60288362001999565b91507f6f6e6c792061646d696e20697320616c6c6f77656420746869732066756e637460008301527f696f6e616c6974790000000000000000000000000000000000000000000000006020830152604082019050919050565b6000620015b7603f8362001999565b91507f617272617973206f66206e616d65732c7469636b6572732c696e697469616c5360008301527f7570706c79206d7573742068617665207468652073616d65206c656e677468006020830152604082019050919050565b60006200161f60148362001999565b91507f746f6b656e20646f6573206e6f742065786973740000000000000000000000006000830152602082019050919050565b6080820160008201516200166a600085018262001485565b5060208201516200167f6020850182620014c2565b506040820151620016946040850182620016af565b506060820151620016a96060850182620013f9565b50505050565b620016ba8162001a20565b82525050565b620016cb8162001a20565b82525050565b6000620016df8284620014a7565b60208201915081905092915050565b6000620016fc8284620014e4565b60088201915081905092915050565b60006020820190506200172260008301846200140a565b92915050565b60006040820190506200173f60008301856200140a565b6200174e6020830184620016c0565b9392505050565b600060208201905081810360008301526200177181846200141b565b905092915050565b600060208201905062001790600083018462001496565b92915050565b6000608082019050620017ad600083018762001496565b620017bc6020830186620014d3565b620017cb6040830185620016c0565b620017da60608301846200140a565b95945050505050565b60006060820190508181036000830152620017ff8186620014ff565b90508181036020830152620018158185620014ff565b9050620018266040830184620016c0565b949350505050565b60006020820190508181036000830152620018498162001540565b9050919050565b600060208201905081810360008301526200186b81620015a8565b9050919050565b600060208201905081810360008301526200188d8162001610565b9050919050565b6000604051905081810181811067ffffffffffffffff82111715620018be57620018bd62001af1565b5b8060405250919050565b600067ffffffffffffffff821115620018e657620018e562001af1565b5b602082029050602081019050919050565b600067ffffffffffffffff82111562001915576200191462001af1565b5b602082029050602081019050919050565b600067ffffffffffffffff82111562001944576200194362001af1565b5b602082029050602081019050919050565b6000819050602082019050919050565b600081519050919050565b600081519050919050565b6000602082019050919050565b600082825260208201905092915050565b600082825260208201905092915050565b6000620019b78262001a00565b9050919050565b60008115159050919050565b6000819050919050565b60007fffffffffffffffff00000000000000000000000000000000000000000000000082169050919050565b600073ffffffffffffffffffffffffffffffffffffffff82169050919050565b6000819050919050565b60005b8381101562001a4a57808201518184015260208101905062001a2d565b8381111562001a5a576000848401525b50505050565b600062001a6d8262001a20565b91507fffffffffffffffffffffffffffffffffffffffffffffffffffffffffffffffff82141562001aa35762001aa262001ac2565b5b600182019050919050565b6000819050919050565b6000819050919050565b7f4e487b7100000000000000000000000000000000000000000000000000000000600052601160045260246000fd5b7f4e487b7100000000000000000000000000000000000000000000000000000000600052604160045260246000fd5b6000601f19601f8301169050919050565b62001b3c81620019aa565b811462001b4857600080fd5b50565b62001b5681620019be565b811462001b6257600080fd5b50565b62001b7081620019ca565b811462001b7c57600080fd5b50565b62001b8a81620019d4565b811462001b9657600080fd5b50565b62001ba48162001a20565b811462001bb057600080fd5b5056fe60806040523480156200001157600080fd5b50604051620022553803806200225583398181016040528101906200003791906200038f565b828281600390805190602001906200005192919062000256565b5080600490805190602001906200006a92919062000256565b50505033600560006101000a81548173ffffffffffffffffffffffffffffffffffffffff021916908373ffffffffffffffffffffffffffffffffffffffff16021790555060008114620000ca57620000c93382620000d360201b60201c565b5b5050506200069b565b600073ffffffffffffffffffffffffffffffffffffffff168273ffffffffffffffffffffffffffffffffffffffff16141562000146576040517f08c379a00000000000000000000000000000000000000000000000000000000081526004016200013d906200046a565b60405180910390fd5b6200015a600083836200024c60201b60201c565b80600260008282546200016e919062000521565b92505081905550806000808473ffffffffffffffffffffffffffffffffffffffff1673ffffffffffffffffffffffffffffffffffffffff1681526020019081526020016000206000828254620001c5919062000521565b925050819055508173ffffffffffffffffffffffffffffffffffffffff16600073ffffffffffffffffffffffffffffffffffffffff167fddf252ad1be2c89b69c2b068fc378daa952ba7f163c4a11628f55a4df523b3ef836040516200022c91906200048c565b60405180910390a362000248600083836200025160201b60201c565b5050565b505050565b505050565b8280546200026490620005be565b90600052602060002090601f016020900481019282620002885760008555620002d4565b82601f10620002a357805160ff1916838001178555620002d4565b82800160010185558215620002d4579182015b82811115620002d3578251825591602001919060010190620002b6565b5b509050620002e39190620002e7565b5090565b5b8082111562000302576000816000905550600101620002e8565b5090565b60006200031d6200031784620004dd565b620004a9565b9050828152602081018484840111156200033657600080fd5b6200034384828562000588565b509392505050565b600082601f8301126200035d57600080fd5b81516200036f84826020860162000306565b91505092915050565b600081519050620003898162000681565b92915050565b600080600060608486031215620003a557600080fd5b600084015167ffffffffffffffff811115620003c057600080fd5b620003ce868287016200034b565b935050602084015167ffffffffffffffff811115620003ec57600080fd5b620003fa868287016200034b565b92505060406200040d8682870162000378565b9150509250925092565b600062000426601f8362000510565b91507f45524332303a206d696e7420746f20746865207a65726f2061646472657373006000830152602082019050919050565b62000464816200057e565b82525050565b60006020820190508181036000830152620004858162000417565b9050919050565b6000602082019050620004a3600083018462000459565b92915050565b6000604051905081810181811067ffffffffffffffff82111715620004d357620004d262000652565b5b8060405250919050565b600067ffffffffffffffff821115620004fb57620004fa62000652565b5b601f19601f8301169050602081019050919050565b600082825260208201905092915050565b60006200052e826200057e565b91506200053b836200057e565b9250827fffffffffffffffffffffffffffffffffffffffffffffffffffffffffffffffff03821115620005735762000572620005f4565b5b828201905092915050565b6000819050919050565b60005b83811015620005a85780820151818401526020810190506200058b565b83811115620005b8576000848401525b50505050565b60006002820490506001821680620005d757607f821691505b60208210811415620005ee57620005ed62000623565b5b50919050565b7f4e487b7100000000000000000000000000000000000000000000000000000000600052601160045260246000fd5b7f4e487b7100000000000000000000000000000000000000000000000000000000600052602260045260246000fd5b7f4e487b7100000000000000000000000000000000000000000000000000000000600052604160045260246000fd5b6200068c816200057e565b81146200069857600080fd5b50565b611baa80620006ab6000396000f3fe608060405234801561001057600080fd5b50600436106100f55760003560e01c806342966c6811610097578063a457c2d711610066578063a457c2d714610286578063a9059cbb146102b6578063dd62ed3e146102e6578063f851a44014610316576100f5565b806342966c681461020057806370a082311461021c5780638f2839701461024c57806395d89b4114610268576100f5565b806323b872dd116100d357806323b872dd14610166578063313ce5671461019657806339509351146101b457806340c10f19146101e4576100f5565b806306fdde03146100fa578063095ea7b31461011857806318160ddd14610148575b600080fd5b610102610334565b60405161010f91906117bf565b60405180910390f35b610132600480360381019061012d9190611299565b6103c6565b60405161013f91906117a4565b60405180910390f35b6101506103e9565b60405161015d9190611941565b60405180910390f35b610180600480360381019061017b919061124a565b6103f3565b60405161018d91906117a4565b60405180910390f35b61019e610422565b6040516101ab919061195c565b60405180910390f35b6101ce60048036038101906101c99190611299565b61042b565b6040516101db91906117a4565b60405180910390f35b6101fe60048036038101906101f99190611299565b6104d5565b005b61021a600480360381019061021591906112d5565b610573565b005b610236600480360381019061023191906111e5565b610632565b6040516102439190611941565b60405180910390f35b610266600480360381019061026191906111e5565b61067a565b005b61027061074e565b60405161027d91906117bf565b60405180910390f35b6102a0600480360381019061029b9190611299565b6107e0565b6040516102ad91906117a4565b60405180910390f35b6102d060048036038101906102cb9190611299565b6108ca565b6040516102dd91906117a4565b60405180910390f35b61030060048036038101906102fb919061120e565b6108ed565b60405161030d9190611941565b60405180910390f35b61031e610974565b60405161032b9190611789565b60405180910390f35b60606003805461034390611aa5565b80601f016020809104026020016040519081016040528092919081815260200182805461036f90611aa5565b80156103bc5780601f10610391576101008083540402835291602001916103bc565b820191906000526020600020905b81548152906001019060200180831161039f57829003601f168201915b5050505050905090565b6000806103d161099a565b90506103de8185856109a2565b600191505092915050565b6000600254905090565b6000806103fe61099a565b905061040b858285610b6d565b610416858585610bf9565b60019150509392505050565b60006012905090565b60008061043661099a565b90506104ca818585600160008673ffffffffffffffffffffffffffffffffffffffff1673ffffffffffffffffffffffffffffffffffffffff16815260200190815260200160002060008973ffffffffffffffffffffffffffffffffffffffff1673ffffffffffffffffffffffffffffffffffffffff168152602001908152602001600020546104c59190611993565b6109a2565b600191505092915050565b600560009054906101000a900473ffffffffffffffffffffffffffffffffffffffff1673ffffffffffffffffffffffffffffffffffffffff163373ffffffffffffffffffffffffffffffffffffffff1614610565576040517f08c379a000000000000000000000000000000000000000000000000000000000815260040161055c90611801565b60405180910390fd5b61056f8282610e7a565b5050565b600560009054906101000a900473ffffffffffffffffffffffffffffffffffffffff1673ffffffffffffffffffffffffffffffffffffffff163373ffffffffffffffffffffffffffffffffffffffff1614610603576040517f08c379a00000000000000000000000000000000000000000000000000000000081526004016105fa90611801565b60405180910390fd5b61062f600560009054906101000a900473ffffffffffffffffffffffffffffffffffffffff1682610fda565b50565b60008060008373ffffffffffffffffffffffffffffffffffffffff1673ffffffffffffffffffffffffffffffffffffffff168152602001908152602001600020549050919050565b600560009054906101000a900473ffffffffffffffffffffffffffffffffffffffff1673ffffffffffffffffffffffffffffffffffffffff163373ffffffffffffffffffffffffffffffffffffffff161461070a576040517f08c379a000000000000000000000000000000000000000000000000000000000815260040161070190611801565b60405180910390fd5b80600560006101000a81548173ffffffffffffffffffffffffffffffffffffffff021916908373ffffffffffffffffffffffffffffffffffffffff16021790555050565b60606004805461075d90611aa5565b80601f016020809104026020016040519081016040528092919081815260200182805461078990611aa5565b80156107d65780601f106107ab576101008083540402835291602001916107d6565b820191906000526020600020905b8154815290600101906020018083116107b957829003601f168201915b5050505050905090565b6000806107eb61099a565b90506000600160008373ffffffffffffffffffffffffffffffffffffffff1673ffffffffffffffffffffffffffffffffffffffff16815260200190815260200160002060008673ffffffffffffffffffffffffffffffffffffffff1673ffffffffffffffffffffffffffffffffffffffff168152602001908152602001600020549050838110156108b1576040517f08c379a00000000000000000000000000000000000000000000000000000000081526004016108a890611901565b60405180910390fd5b6108be82868684036109a2565b60019250505092915050565b6000806108d561099a565b90506108e2818585610bf9565b600191505092915050565b6000600160008473ffffffffffffffffffffffffffffffffffffffff1673ffffffffffffffffffffffffffffffffffffffff16815260200190815260200160002060008373ffffffffffffffffffffffffffffffffffffffff1673ffffffffffffffffffffffffffffffffffffffff16815260200190815260200160002054905092915050565b600560009054906101000a900473ffffffffffffffffffffffffffffffffffffffff1681565b600033905090565b600073ffffffffffffffffffffffffffffffffffffffff168373ffffffffffffffffffffffffffffffffffffffff161415610a12576040517f08c379a0000000000000000000000000000000000000000000000000000000008152600401610a09906118e1565b60405180910390fd5b600073ffffffffffffffffffffffffffffffffffffffff168273ffffffffffffffffffffffffffffffffffffffff161415610a82576040517f08c379a0000000000000000000000000000000000000000000000000000000008152600401610a7990611841565b60405180910390fd5b80600160008573ffffffffffffffffffffffffffffffffffffffff1673ffffffffffffffffffffffffffffffffffffffff16815260200190815260200160002060008473ffffffffffffffffffffffffffffffffffffffff1673ffffffffffffffffffffffffffffffffffffffff168152602001908152602001600020819055508173ffffffffffffffffffffffffffffffffffffffff168373ffffffffffffffffffffffffffffffffffffffff167f8c5be1e5ebec7d5bd14f71427d1e84f3dd0314c0f7b2291e5b200ac8c7c3b92583604051610b609190611941565b60405180910390a3505050565b6000610b7984846108ed565b90507fffffffffffffffffffffffffffffffffffffffffffffffffffffffffffffffff8114610bf35781811015610be5576040517f08c379a0000000000000000000000000000000000000000000000000000000008152600401610bdc90611861565b60405180910390fd5b610bf284848484036109a2565b5b50505050565b600073ffffffffffffffffffffffffffffffffffffffff168373ffffffffffffffffffffffffffffffffffffffff161415610c69576040517f08c379a0000000000000000000000000000000000000000000000000000000008152600401610c60906118c1565b60405180910390fd5b600073ffffffffffffffffffffffffffffffffffffffff168273ffffffffffffffffffffffffffffffffffffffff161415610cd9576040517f08c379a0000000000000000000000000000000000000000000000000000000008152600401610cd0906117e1565b60405180910390fd5b610ce48383836111b1565b60008060008573ffffffffffffffffffffffffffffffffffffffff1673ffffffffffffffffffffffffffffffffffffffff16815260200190815260200160002054905081811015610d6a576040517f08c379a0000000000000000000000000000000000000000000000000000000008152600401610d6190611881565b60405180910390fd5b8181036000808673ffffffffffffffffffffffffffffffffffffffff1673ffffffffffffffffffffffffffffffffffffffff16815260200190815260200160002081905550816000808573ffffffffffffffffffffffffffffffffffffffff1673ffffffffffffffffffffffffffffffffffffffff1681526020019081526020016000206000828254610dfd9190611993565b925050819055508273ffffffffffffffffffffffffffffffffffffffff168473ffffffffffffffffffffffffffffffffffffffff167fddf252ad1be2c89b69c2b068fc378daa952ba7f163c4a11628f55a4df523b3ef84604051610e619190611941565b60405180910390a3610e748484846111b6565b50505050565b600073ffffffffffffffffffffffffffffffffffffffff168273ffffffffffffffffffffffffffffffffffffffff161415610eea576040517f08c379a0000000000000000000000000000000000000000000000000000000008152600401610ee190611921565b60405180910390fd5b610ef6600083836111b1565b8060026000828254610f089190611993565b92505081905550806000808473ffffffffffffffffffffffffffffffffffffffff1673ffffffffffffffffffffffffffffffffffffffff1681526020019081526020016000206000828254610f5d9190611993565b925050819055508173ffffffffffffffffffffffffffffffffffffffff16600073ffffffffffffffffffffffffffffffffffffffff167fddf252ad1be2c89b69c2b068fc378daa952ba7f163c4a11628f55a4df523b3ef83604051610fc29190611941565b60405180910390a3610fd6600083836111b6565b5050565b600073ffffffffffffffffffffffffffffffffffffffff168273ffffffffffffffffffffffffffffffffffffffff16141561104a576040517f08c379a0000000000000000000000000000000000000000000000000000000008152600401611041906118a1565b60405180910390fd5b611056826000836111b1565b60008060008473ffffffffffffffffffffffffffffffffffffffff1673ffffffffffffffffffffffffffffffffffffffff168152602001908152602001600020549050818110156110dc576040517f08c379a00000000000000000000000000000000000000000000000000000000081526004016110d390611821565b60405180910390fd5b8181036000808573ffffffffffffffffffffffffffffffffffffffff1673ffffffffffffffffffffffffffffffffffffffff16815260200190815260200160002081905550816002600082825461113391906119e9565b92505081905550600073ffffffffffffffffffffffffffffffffffffffff168373ffffffffffffffffffffffffffffffffffffffff167fddf252ad1be2c89b69c2b068fc378daa952ba7f163c4a11628f55a4df523b3ef846040516111989190611941565b60405180910390a36111ac836000846111b6565b505050565b505050565b505050565b6000813590506111ca81611b46565b92915050565b6000813590506111df81611b5d565b92915050565b6000602082840312156111f757600080fd5b6000611205848285016111bb565b91505092915050565b6000806040838503121561122157600080fd5b600061122f858286016111bb565b9250506020611240858286016111bb565b9150509250929050565b60008060006060848603121561125f57600080fd5b600061126d868287016111bb565b935050602061127e868287016111bb565b925050604061128f868287016111d0565b9150509250925092565b600080604083850312156112ac57600080fd5b60006112ba858286016111bb565b92505060206112cb858286016111d0565b9150509250929050565b6000602082840312156112e757600080fd5b60006112f5848285016111d0565b91505092915050565b61130781611a1d565b82525050565b61131681611a2f565b82525050565b600061132782611977565b6113318185611982565b9350611341818560208601611a72565b61134a81611b35565b840191505092915050565b6000611362602383611982565b91507f45524332303a207472616e7366657220746f20746865207a65726f206164647260008301527f65737300000000000000000000000000000000000000000000000000000000006020830152604082019050919050565b60006113c8602883611982565b91507f6f6e6c792061646d696e20697320616c6c6f77656420746869732066756e637460008301527f696f6e616c6974790000000000000000000000000000000000000000000000006020830152604082019050919050565b600061142e602283611982565b91507f45524332303a206275726e20616d6f756e7420657863656564732062616c616e60008301527f63650000000000000000000000000000000000000000000000000000000000006020830152604082019050919050565b6000611494602283611982565b91507f45524332303a20617070726f766520746f20746865207a65726f20616464726560008301527f73730000000000000000000000000000000000000000000000000000000000006020830152604082019050919050565b60006114fa601d83611982565b91507f45524332303a20696e73756666696369656e7420616c6c6f77616e63650000006000830152602082019050919050565b600061153a602683611982565b91507f45524332303a207472616e7366657220616d6f756e742065786365656473206260008301527f616c616e636500000000000000000000000000000000000000000000000000006020830152604082019050919050565b60006115a0602183611982565b91507f45524332303a206275726e2066726f6d20746865207a65726f2061646472657360008301527f73000000000000000000000000000000000000000000000000000000000000006020830152604082019050919050565b6000611606602583611982565b91507f45524332303a207472616e736665722066726f6d20746865207a65726f20616460008301527f64726573730000000000000000000000000000000000000000000000000000006020830152604082019050919050565b600061166c602483611982565b91507f45524332303a20617070726f76652066726f6d20746865207a65726f2061646460008301527f72657373000000000000000000000000000000000000000000000000000000006020830152604082019050919050565b60006116d2602583611982565b91507f45524332303a2064656372656173656420616c6c6f77616e63652062656c6f7760008301527f207a65726f0000000000000000000000000000000000000000000000000000006020830152604082019050919050565b6000611738601f83611982565b91507f45524332303a206d696e7420746f20746865207a65726f2061646472657373006000830152602082019050919050565b61177481611a5b565b82525050565b61178381611a65565b82525050565b600060208201905061179e60008301846112fe565b92915050565b60006020820190506117b9600083018461130d565b92915050565b600060208201905081810360008301526117d9818461131c565b905092915050565b600060208201905081810360008301526117fa81611355565b9050919050565b6000602082019050818103600083015261181a816113bb565b9050919050565b6000602082019050818103600083015261183a81611421565b9050919050565b6000602082019050818103600083015261185a81611487565b9050919050565b6000602082019050818103600083015261187a816114ed565b9050919050565b6000602082019050818103600083015261189a8161152d565b9050919050565b600060208201905081810360008301526118ba81611593565b9050919050565b600060208201905081810360008301526118da816115f9565b9050919050565b600060208201905081810360008301526118fa8161165f565b9050919050565b6000602082019050818103600083015261191a816116c5565b9050919050565b6000602082019050818103600083015261193a8161172b565b9050919050565b6000602082019050611956600083018461176b565b92915050565b6000602082019050611971600083018461177a565b92915050565b600081519050919050565b600082825260208201905092915050565b600061199e82611a5b565b91506119a983611a5b565b9250827fffffffffffffffffffffffffffffffffffffffffffffffffffffffffffffffff038211156119de576119dd611ad7565b5b828201905092915050565b60006119f482611a5b565b91506119ff83611a5b565b925082821015611a1257611a11611ad7565b5b828203905092915050565b6000611a2882611a3b565b9050919050565b60008115159050919050565b600073ffffffffffffffffffffffffffffffffffffffff82169050919050565b6000819050919050565b600060ff82169050919050565b60005b83811015611a90578082015181840152602081019050611a75565b83811115611a9f576000848401525b50505050565b60006002820490506001821680611abd57607f821691505b60208210811415611ad157611ad0611b06565b5b50919050565b7f4e487b7100000000000000000000000000000000000000000000000000000000600052601160045260246000fd5b7f4e487b7100000000000000000000000000000000000000000000000000000000600052602260045260246000fd5b6000601f19601f8301169050919050565b611b4f81611a1d565b8114611b5a57600080fd5b50565b611b6681611a5b565b8114611b7157600080fd5b5056fea26469706673582212203a9a542c0df3896d66c51d74e19d73a86628b9d380261859699663fc97b5943064736f6c63430008000033a26469706673582212200c56e50de899d8ebd4dff5d06e760c6a67195f16c5820a5643892af8898ebe5e64736f6c63430008000033",
  "immutableReferences": {},
  "source": "// SPDX-License-Identifier: MIT\npragma solidity ^0.8.0;\n\nimport \"./ntt54_ERC20.sol\";\n\n\n///@title A factory to mint ERC20 tokens\n///@author ntt54\ncontract ntt54_Factory {\n\n    address public admin;\n    struct Token {\n        bytes32 tokenID;\n        bytes8 tokenTicker;\n        uint tokenSupply;\n        address tokenAddress;\n    }\n\n    mapping(bytes32 => Token) public tokens;       //tokens[tokenID e.g. bitcoin in bytes32} => {0x28398298729, \"BTC\",1000,0x28358253}\n    bytes32[] public tokenIDs;\n\n     \n    modifier onlyAdmin {\n        require(msg.sender==admin,\"only admin is allowed this functionality\");\n        _;\n    }\n\n    constructor (address _admin) {\n        admin = _admin;\n    }\n\n\n    /// @notice Get an array with all tokens. Each element is a struct with tokenID, tokenTicker, tokenSupply, tokenAddress.\n    function getAllTokens() external view returns(Token[] memory) {\n        Token[] memory tokensStructs = new Token[](tokenIDs.length);\n        for (uint i=0; i < tokenIDs.length; i++) {\n            tokensStructs[i] = tokens[ tokenIDs[i] ];      \n        }\n        return tokensStructs;\n    }\n    \n    /**\n        @notice Mint a list of ERC20 tokens. A token can only be minted once.\n        @param names Array of names in bytes32 of ERC20 tokens to be minted\n        @param tickers Array of tickers in bytes8 of ERC20 tokens to be minted\n        @param initialSupply Array of initial supply of ERC20 tokens to be minted\n    */\n    function initialERC20Mint (bytes32[] memory names, bytes8[] memory tickers, uint[] memory initialSupply ) external onlyAdmin {\n        require(names.length == tickers.length && names.length == initialSupply.length, \"arrays of names,tickers,initialSupply must have the same length\");\n\n        for (uint i=0; i < names.length; i++)\n        {\n            if (tokens[names[i]].tokenAddress == address(0)) \n            {\n                ntt54_ERC20 newERC20 = new ntt54_ERC20(string(abi.encodePacked(names[i])), string(abi.encodePacked(tickers[i])), initialSupply[i] );\n                tokens[names[i]] = Token({tokenID: names[i], tokenTicker: tickers[i], tokenSupply: initialSupply[i] , tokenAddress: address(newERC20) }) ;\n                tokenIDs.push( names[i] );\n            }\n\n        }\n\n    }\n\n    /**\n        @notice Change the administrator of an ERC20 if this contract is the admin of that token. Useful if initial supply is minted to this contract \n        @param newAdmin This will be the new admin of ERC20 token.\n        @param tokID The token ID \n    */\n    function changeAdminOfERC20 (address newAdmin, bytes32 tokID) external onlyAdmin {\n        require( tokens[tokID].tokenAddress != address(0),\"token does not exist\");\n\n        ntt54_ERC20 token = ntt54_ERC20( tokens[tokID].tokenAddress );\n        if (token.admin()== address(this) && newAdmin!=address(this))\n        {\n            token.changeAdmin(newAdmin);\n        }\n    }\n\n    /**\n        @notice Approve an address to be able to transfer all balance for all tokens\n        @param spender Spender address will be able to withdraw all balance or all tokens.\n    */\n    function approveAddress(address spender) external onlyAdmin {\n        for (uint i=0; i < tokenIDs.length; i++)\n        {\n            ntt54_ERC20 token = ntt54_ERC20( tokens[ tokenIDs[i] ].tokenAddress );\n            uint balance = token.balanceOf(address(this));\n            if (balance > 0) \n            {\n                token.approve(spender, balance);\n            }\n        }\n    }\n\n}\n\n\n",
  "sourcePath": "/Users/angelos-imac/Dropbox/Cryptos/Darwinia/Client_FrontEnd/ntt54_DEX_truffle/contracts/ntt54_Factory.sol",
  "compiler": {
    "name": "solc",
    "version": "0.8.0+commit.c7dfd78e.Emscripten.clang"
  },
  "schemaVersion": "3.4.5",
  "updatedAt": "2022-02-27T20:29:03.606Z",
  "devdoc": {
    "author": "ntt54",
    "kind": "dev",
    "methods": {
      "approveAddress(address)": {
        "params": {
          "spender": "Spender address will be able to withdraw all balance or all tokens."
        }
      },
      "changeAdminOfERC20(address,bytes32)": {
        "params": {
          "newAdmin": "This will be the new admin of ERC20 token.",
          "tokID": "The token ID "
        }
      },
      "initialERC20Mint(bytes32[],bytes8[],uint256[])": {
        "params": {
          "initialSupply": "Array of initial supply of ERC20 tokens to be minted",
          "names": "Array of names in bytes32 of ERC20 tokens to be minted",
          "tickers": "Array of tickers in bytes8 of ERC20 tokens to be minted"
        }
      }
    },
    "title": "A factory to mint ERC20 tokens",
    "version": 1
  },
  "userdoc": {
    "kind": "user",
    "methods": {
      "approveAddress(address)": {
        "notice": "Approve an address to be able to transfer all balance for all tokens"
      },
      "changeAdminOfERC20(address,bytes32)": {
        "notice": "Change the administrator of an ERC20 if this contract is the admin of that token. Useful if initial supply is minted to this contract "
      },
      "getAllTokens()": {
        "notice": "Get an array with all tokens. Each element is a struct with tokenID, tokenTicker, tokenSupply, tokenAddress."
      },
      "initialERC20Mint(bytes32[],bytes8[],uint256[])": {
        "notice": "Mint a list of ERC20 tokens. A token can only be minted once."
      }
    },
    "version": 1
  }
}