{
  "_format": "hh-sol-artifact-1",
  "contractName": "ntt54Will",
  "sourceName": "contracts/ntt54Will.sol",
  "abi": [
    {
      "inputs": [],
      "stateMutability": "nonpayable",
      "type": "constructor"
    },
    {
      "anonymous": false,
      "inputs": [
        {
          "indexed": false,
          "internalType": "address",
          "name": "",
          "type": "address"
        },
        {
          "indexed": false,
          "internalType": "uint256",
          "name": "",
          "type": "uint256"
        }
      ],
      "name": "Received",
      "type": "event"
    },
    {
      "inputs": [],
      "name": "ACA",
      "outputs": [
        {
          "internalType": "address",
          "name": "",
          "type": "address"
        }
      ],
      "stateMutability": "view",
      "type": "function"
    },
    {
      "inputs": [],
      "name": "AUSD",
      "outputs": [
        {
          "internalType": "address",
          "name": "",
          "type": "address"
        }
      ],
      "stateMutability": "view",
      "type": "function"
    },
    {
      "inputs": [],
      "name": "BNC",
      "outputs": [
        {
          "internalType": "address",
          "name": "",
          "type": "address"
        }
      ],
      "stateMutability": "view",
      "type": "function"
    },
    {
      "inputs": [],
      "name": "CASH",
      "outputs": [
        {
          "internalType": "address",
          "name": "",
          "type": "address"
        }
      ],
      "stateMutability": "view",
      "type": "function"
    },
    {
      "inputs": [],
      "name": "DEX",
      "outputs": [
        {
          "internalType": "address",
          "name": "",
          "type": "address"
        }
      ],
      "stateMutability": "view",
      "type": "function"
    },
    {
      "inputs": [],
      "name": "DOT",
      "outputs": [
        {
          "internalType": "address",
          "name": "",
          "type": "address"
        }
      ],
      "stateMutability": "view",
      "type": "function"
    },
    {
      "inputs": [],
      "name": "EVM",
      "outputs": [
        {
          "internalType": "address",
          "name": "",
          "type": "address"
        }
      ],
      "stateMutability": "view",
      "type": "function"
    },
    {
      "inputs": [],
      "name": "KAR",
      "outputs": [
        {
          "internalType": "address",
          "name": "",
          "type": "address"
        }
      ],
      "stateMutability": "view",
      "type": "function"
    },
    {
      "inputs": [],
      "name": "KBTC",
      "outputs": [
        {
          "internalType": "address",
          "name": "",
          "type": "address"
        }
      ],
      "stateMutability": "view",
      "type": "function"
    },
    {
      "inputs": [],
      "name": "KINT",
      "outputs": [
        {
          "internalType": "address",
          "name": "",
          "type": "address"
        }
      ],
      "stateMutability": "view",
      "type": "function"
    },
    {
      "inputs": [],
      "name": "KSM",
      "outputs": [
        {
          "internalType": "address",
          "name": "",
          "type": "address"
        }
      ],
      "stateMutability": "view",
      "type": "function"
    },
    {
      "inputs": [],
      "name": "KUSD",
      "outputs": [
        {
          "internalType": "address",
          "name": "",
          "type": "address"
        }
      ],
      "stateMutability": "view",
      "type": "function"
    },
    {
      "inputs": [],
      "name": "LDOT",
      "outputs": [
        {
          "internalType": "address",
          "name": "",
          "type": "address"
        }
      ],
      "stateMutability": "view",
      "type": "function"
    },
    {
      "inputs": [],
      "name": "LKSM",
      "outputs": [
        {
          "internalType": "address",
          "name": "",
          "type": "address"
        }
      ],
      "stateMutability": "view",
      "type": "function"
    },
    {
      "inputs": [],
      "name": "LP_ACA_AUSD",
      "outputs": [
        {
          "internalType": "address",
          "name": "",
          "type": "address"
        }
      ],
      "stateMutability": "view",
      "type": "function"
    },
    {
      "inputs": [],
      "name": "LP_DOT_AUSD",
      "outputs": [
        {
          "internalType": "address",
          "name": "",
          "type": "address"
        }
      ],
      "stateMutability": "view",
      "type": "function"
    },
    {
      "inputs": [],
      "name": "LP_KAR_KUSD",
      "outputs": [
        {
          "internalType": "address",
          "name": "",
          "type": "address"
        }
      ],
      "stateMutability": "view",
      "type": "function"
    },
    {
      "inputs": [],
      "name": "LP_KSM_KUSD",
      "outputs": [
        {
          "internalType": "address",
          "name": "",
          "type": "address"
        }
      ],
      "stateMutability": "view",
      "type": "function"
    },
    {
      "inputs": [],
      "name": "LP_LDOT_AUSD",
      "outputs": [
        {
          "internalType": "address",
          "name": "",
          "type": "address"
        }
      ],
      "stateMutability": "view",
      "type": "function"
    },
    {
      "inputs": [],
      "name": "LP_LKSM_KUSD",
      "outputs": [
        {
          "internalType": "address",
          "name": "",
          "type": "address"
        }
      ],
      "stateMutability": "view",
      "type": "function"
    },
    {
      "inputs": [],
      "name": "LP_RENBTC_AUSD",
      "outputs": [
        {
          "internalType": "address",
          "name": "",
          "type": "address"
        }
      ],
      "stateMutability": "view",
      "type": "function"
    },
    {
      "inputs": [],
      "name": "Oracle",
      "outputs": [
        {
          "internalType": "address",
          "name": "",
          "type": "address"
        }
      ],
      "stateMutability": "view",
      "type": "function"
    },
    {
      "inputs": [],
      "name": "PHA",
      "outputs": [
        {
          "internalType": "address",
          "name": "",
          "type": "address"
        }
      ],
      "stateMutability": "view",
      "type": "function"
    },
    {
      "inputs": [],
      "name": "PROJECTFEES",
      "outputs": [
        {
          "internalType": "uint256",
          "name": "",
          "type": "uint256"
        }
      ],
      "stateMutability": "view",
      "type": "function"
    },
    {
      "inputs": [],
      "name": "RENBTC",
      "outputs": [
        {
          "internalType": "address",
          "name": "",
          "type": "address"
        }
      ],
      "stateMutability": "view",
      "type": "function"
    },
    {
      "inputs": [],
      "name": "Schedule",
      "outputs": [
        {
          "internalType": "address",
          "name": "",
          "type": "address"
        }
      ],
      "stateMutability": "view",
      "type": "function"
    },
    {
      "inputs": [],
      "name": "TAI",
      "outputs": [
        {
          "internalType": "address",
          "name": "",
          "type": "address"
        }
      ],
      "stateMutability": "view",
      "type": "function"
    },
    {
      "inputs": [],
      "name": "VSKSM",
      "outputs": [
        {
          "internalType": "address",
          "name": "",
          "type": "address"
        }
      ],
      "stateMutability": "view",
      "type": "function"
    },
    {
      "inputs": [],
      "name": "WILLFEES",
      "outputs": [
        {
          "internalType": "uint256",
          "name": "",
          "type": "uint256"
        }
      ],
      "stateMutability": "view",
      "type": "function"
    },
    {
      "inputs": [
        {
          "internalType": "address",
          "name": "_beneficiaryAddress",
          "type": "address"
        },
        {
          "internalType": "string",
          "name": "_beneficiaryNickName",
          "type": "string"
        },
        {
          "internalType": "string",
          "name": "_finalMessage",
          "type": "string"
        },
        {
          "internalType": "uint256",
          "name": "_cashPercent",
          "type": "uint256"
        },
        {
          "internalType": "address",
          "name": "_assets",
          "type": "address"
        }
      ],
      "name": "addWillBeneficiary",
      "outputs": [],
      "stateMutability": "nonpayable",
      "type": "function"
    },
    {
      "inputs": [
        {
          "internalType": "uint256",
          "name": "",
          "type": "uint256"
        }
      ],
      "name": "adminAccounts",
      "outputs": [
        {
          "internalType": "address",
          "name": "",
          "type": "address"
        }
      ],
      "stateMutability": "view",
      "type": "function"
    },
    {
      "inputs": [],
      "name": "aliveAndKicking",
      "outputs": [],
      "stateMutability": "nonpayable",
      "type": "function"
    },
    {
      "inputs": [
        {
          "internalType": "address",
          "name": "_beneficiaryAddress",
          "type": "address"
        },
        {
          "internalType": "string",
          "name": "_beneficiaryNickName",
          "type": "string"
        },
        {
          "internalType": "string",
          "name": "_finalMessage",
          "type": "string"
        },
        {
          "internalType": "uint256",
          "name": "_cashPercent",
          "type": "uint256"
        }
      ],
      "name": "amendWillBeneficiaryCash",
      "outputs": [],
      "stateMutability": "nonpayable",
      "type": "function"
    },
    {
      "inputs": [
        {
          "internalType": "uint256",
          "name": "",
          "type": "uint256"
        }
      ],
      "name": "assetsERC20",
      "outputs": [
        {
          "internalType": "address",
          "name": "",
          "type": "address"
        }
      ],
      "stateMutability": "view",
      "type": "function"
    },
    {
      "inputs": [
        {
          "internalType": "address",
          "name": "",
          "type": "address"
        }
      ],
      "name": "beneficiaries",
      "outputs": [
        {
          "internalType": "address",
          "name": "beneficiaryAddress",
          "type": "address"
        },
        {
          "internalType": "string",
          "name": "beneficiaryNickName",
          "type": "string"
        },
        {
          "internalType": "string",
          "name": "finalMessage",
          "type": "string"
        },
        {
          "internalType": "uint256",
          "name": "cashPercent",
          "type": "uint256"
        },
        {
          "internalType": "address",
          "name": "assets",
          "type": "address"
        },
        {
          "internalType": "uint256",
          "name": "index",
          "type": "uint256"
        }
      ],
      "stateMutability": "view",
      "type": "function"
    },
    {
      "inputs": [],
      "name": "cashAddress",
      "outputs": [
        {
          "internalType": "address",
          "name": "",
          "type": "address"
        }
      ],
      "stateMutability": "view",
      "type": "function"
    },
    {
      "inputs": [],
      "name": "checkAdminBalance",
      "outputs": [
        {
          "internalType": "bool",
          "name": "",
          "type": "bool"
        }
      ],
      "stateMutability": "nonpayable",
      "type": "function"
    },
    {
      "inputs": [],
      "name": "checkWillStage",
      "outputs": [
        {
          "internalType": "uint256",
          "name": "",
          "type": "uint256"
        }
      ],
      "stateMutability": "nonpayable",
      "type": "function"
    },
    {
      "inputs": [],
      "name": "cleanUp",
      "outputs": [],
      "stateMutability": "nonpayable",
      "type": "function"
    },
    {
      "inputs": [
        {
          "internalType": "address",
          "name": "",
          "type": "address"
        },
        {
          "internalType": "address",
          "name": "",
          "type": "address"
        }
      ],
      "name": "clientBalances",
      "outputs": [
        {
          "internalType": "uint256",
          "name": "",
          "type": "uint256"
        }
      ],
      "stateMutability": "view",
      "type": "function"
    },
    {
      "inputs": [
        {
          "internalType": "address",
          "name": "tokenAddress",
          "type": "address"
        },
        {
          "internalType": "uint256",
          "name": "amount",
          "type": "uint256"
        }
      ],
      "name": "depositFees",
      "outputs": [],
      "stateMutability": "nonpayable",
      "type": "function"
    },
    {
      "inputs": [],
      "name": "depositFunds",
      "outputs": [],
      "stateMutability": "nonpayable",
      "type": "function"
    },
    {
      "inputs": [],
      "name": "distributeStakedFunds",
      "outputs": [],
      "stateMutability": "nonpayable",
      "type": "function"
    },
    {
      "inputs": [],
      "name": "distributionPoint",
      "outputs": [
        {
          "internalType": "uint256",
          "name": "",
          "type": "uint256"
        }
      ],
      "stateMutability": "view",
      "type": "function"
    },
    {
      "inputs": [
        {
          "internalType": "address",
          "name": "",
          "type": "address"
        },
        {
          "internalType": "address",
          "name": "",
          "type": "address"
        }
      ],
      "name": "feesBalances",
      "outputs": [
        {
          "internalType": "uint256",
          "name": "",
          "type": "uint256"
        }
      ],
      "stateMutability": "view",
      "type": "function"
    },
    {
      "inputs": [],
      "name": "getAdminAccounts",
      "outputs": [
        {
          "internalType": "address[]",
          "name": "",
          "type": "address[]"
        }
      ],
      "stateMutability": "view",
      "type": "function"
    },
    {
      "inputs": [],
      "name": "getAssetsERC20s",
      "outputs": [
        {
          "internalType": "address[]",
          "name": "",
          "type": "address[]"
        }
      ],
      "stateMutability": "view",
      "type": "function"
    },
    {
      "inputs": [],
      "name": "getBalanceSC",
      "outputs": [
        {
          "internalType": "uint256",
          "name": "",
          "type": "uint256"
        }
      ],
      "stateMutability": "view",
      "type": "function"
    },
    {
      "inputs": [
        {
          "internalType": "address",
          "name": "_beneficiaryAddress",
          "type": "address"
        }
      ],
      "name": "getBeneficiaryByAddress",
      "outputs": [
        {
          "components": [
            {
              "internalType": "address",
              "name": "beneficiaryAddress",
              "type": "address"
            },
            {
              "internalType": "string",
              "name": "beneficiaryNickName",
              "type": "string"
            },
            {
              "internalType": "string",
              "name": "finalMessage",
              "type": "string"
            },
            {
              "internalType": "uint256",
              "name": "cashPercent",
              "type": "uint256"
            },
            {
              "internalType": "address",
              "name": "assets",
              "type": "address"
            },
            {
              "internalType": "uint256",
              "name": "index",
              "type": "uint256"
            }
          ],
          "internalType": "struct ntt54Will.Will_Beneficiary",
          "name": "",
          "type": "tuple"
        }
      ],
      "stateMutability": "view",
      "type": "function"
    },
    {
      "inputs": [
        {
          "internalType": "address",
          "name": "account",
          "type": "address"
        },
        {
          "internalType": "address",
          "name": "tokenAddress",
          "type": "address"
        }
      ],
      "name": "getRegisteredAccountTokenAllowance",
      "outputs": [
        {
          "internalType": "uint256",
          "name": "",
          "type": "uint256"
        }
      ],
      "stateMutability": "view",
      "type": "function"
    },
    {
      "inputs": [],
      "name": "getWillBeneficiaries",
      "outputs": [
        {
          "internalType": "address[]",
          "name": "",
          "type": "address[]"
        }
      ],
      "stateMutability": "view",
      "type": "function"
    },
    {
      "inputs": [
        {
          "internalType": "uint256",
          "name": "",
          "type": "uint256"
        }
      ],
      "name": "inheritance_Assets",
      "outputs": [
        {
          "internalType": "address",
          "name": "",
          "type": "address"
        }
      ],
      "stateMutability": "view",
      "type": "function"
    },
    {
      "inputs": [],
      "name": "inheritance_Cash",
      "outputs": [
        {
          "internalType": "uint256",
          "name": "",
          "type": "uint256"
        }
      ],
      "stateMutability": "view",
      "type": "function"
    },
    {
      "inputs": [],
      "name": "lastCallPoint",
      "outputs": [
        {
          "internalType": "uint256",
          "name": "",
          "type": "uint256"
        }
      ],
      "stateMutability": "view",
      "type": "function"
    },
    {
      "inputs": [],
      "name": "lastCall_dt4",
      "outputs": [
        {
          "internalType": "uint256",
          "name": "",
          "type": "uint256"
        }
      ],
      "stateMutability": "view",
      "type": "function"
    },
    {
      "inputs": [],
      "name": "mantissa",
      "outputs": [
        {
          "internalType": "uint256",
          "name": "",
          "type": "uint256"
        }
      ],
      "stateMutability": "view",
      "type": "function"
    },
    {
      "inputs": [],
      "name": "nativeAddress",
      "outputs": [
        {
          "internalType": "address",
          "name": "",
          "type": "address"
        }
      ],
      "stateMutability": "view",
      "type": "function"
    },
    {
      "inputs": [],
      "name": "refundFunds",
      "outputs": [],
      "stateMutability": "nonpayable",
      "type": "function"
    },
    {
      "inputs": [
        {
          "internalType": "address",
          "name": "account",
          "type": "address"
        },
        {
          "internalType": "address",
          "name": "tokenAddress",
          "type": "address"
        }
      ],
      "name": "registerAccountTokens",
      "outputs": [],
      "stateMutability": "nonpayable",
      "type": "function"
    },
    {
      "inputs": [
        {
          "internalType": "address",
          "name": "account",
          "type": "address"
        }
      ],
      "name": "registerOwnerAccounts",
      "outputs": [],
      "stateMutability": "nonpayable",
      "type": "function"
    },
    {
      "inputs": [
        {
          "internalType": "address",
          "name": "",
          "type": "address"
        },
        {
          "internalType": "uint256",
          "name": "",
          "type": "uint256"
        }
      ],
      "name": "registeredAccountHoldings",
      "outputs": [
        {
          "internalType": "address",
          "name": "",
          "type": "address"
        }
      ],
      "stateMutability": "view",
      "type": "function"
    },
    {
      "inputs": [
        {
          "internalType": "address",
          "name": "",
          "type": "address"
        },
        {
          "internalType": "address",
          "name": "",
          "type": "address"
        }
      ],
      "name": "registeredAccountToken",
      "outputs": [
        {
          "internalType": "bool",
          "name": "",
          "type": "bool"
        }
      ],
      "stateMutability": "view",
      "type": "function"
    },
    {
      "inputs": [
        {
          "internalType": "address",
          "name": "",
          "type": "address"
        }
      ],
      "name": "registeredAccounts",
      "outputs": [
        {
          "internalType": "bool",
          "name": "",
          "type": "bool"
        }
      ],
      "stateMutability": "view",
      "type": "function"
    },
    {
      "inputs": [
        {
          "internalType": "address",
          "name": "",
          "type": "address"
        }
      ],
      "name": "registeredAccountsBalance",
      "outputs": [
        {
          "internalType": "uint256",
          "name": "",
          "type": "uint256"
        }
      ],
      "stateMutability": "view",
      "type": "function"
    },
    {
      "inputs": [
        {
          "internalType": "address",
          "name": "",
          "type": "address"
        }
      ],
      "name": "registeredToken",
      "outputs": [
        {
          "internalType": "bool",
          "name": "",
          "type": "bool"
        }
      ],
      "stateMutability": "view",
      "type": "function"
    },
    {
      "inputs": [
        {
          "internalType": "address",
          "name": "_beneficiaryAddress",
          "type": "address"
        }
      ],
      "name": "removeWillBeneficiary",
      "outputs": [],
      "stateMutability": "nonpayable",
      "type": "function"
    },
    {
      "inputs": [],
      "name": "requestStakedFundsState",
      "outputs": [
        {
          "internalType": "uint256",
          "name": "",
          "type": "uint256"
        }
      ],
      "stateMutability": "view",
      "type": "function"
    },
    {
      "inputs": [],
      "name": "schedulerCounter",
      "outputs": [
        {
          "internalType": "uint256",
          "name": "",
          "type": "uint256"
        }
      ],
      "stateMutability": "view",
      "type": "function"
    },
    {
      "inputs": [],
      "name": "setWill",
      "outputs": [],
      "stateMutability": "nonpayable",
      "type": "function"
    },
    {
      "inputs": [
        {
          "internalType": "string",
          "name": "message",
          "type": "string"
        },
        {
          "internalType": "uint256",
          "name": "_trigger_dt1",
          "type": "uint256"
        },
        {
          "internalType": "uint256",
          "name": "_trigger_dt2",
          "type": "uint256"
        },
        {
          "internalType": "uint256",
          "name": "_trigger_dt3",
          "type": "uint256"
        },
        {
          "internalType": "uint256",
          "name": "_lastCall_dt4",
          "type": "uint256"
        }
      ],
      "name": "setWillGeneralMessage",
      "outputs": [],
      "stateMutability": "nonpayable",
      "type": "function"
    },
    {
      "inputs": [],
      "name": "treasuryAddress",
      "outputs": [
        {
          "internalType": "address",
          "name": "",
          "type": "address"
        }
      ],
      "stateMutability": "view",
      "type": "function"
    },
    {
      "inputs": [],
      "name": "triggerPoint1",
      "outputs": [
        {
          "internalType": "uint256",
          "name": "",
          "type": "uint256"
        }
      ],
      "stateMutability": "view",
      "type": "function"
    },
    {
      "inputs": [],
      "name": "triggerPoint2",
      "outputs": [
        {
          "internalType": "uint256",
          "name": "",
          "type": "uint256"
        }
      ],
      "stateMutability": "view",
      "type": "function"
    },
    {
      "inputs": [],
      "name": "triggerPoint3",
      "outputs": [
        {
          "internalType": "uint256",
          "name": "",
          "type": "uint256"
        }
      ],
      "stateMutability": "view",
      "type": "function"
    },
    {
      "inputs": [],
      "name": "trigger_dt1",
      "outputs": [
        {
          "internalType": "uint256",
          "name": "",
          "type": "uint256"
        }
      ],
      "stateMutability": "view",
      "type": "function"
    },
    {
      "inputs": [],
      "name": "trigger_dt2",
      "outputs": [
        {
          "internalType": "uint256",
          "name": "",
          "type": "uint256"
        }
      ],
      "stateMutability": "view",
      "type": "function"
    },
    {
      "inputs": [],
      "name": "trigger_dt3",
      "outputs": [
        {
          "internalType": "uint256",
          "name": "",
          "type": "uint256"
        }
      ],
      "stateMutability": "view",
      "type": "function"
    },
    {
      "inputs": [],
      "name": "voidWill",
      "outputs": [],
      "stateMutability": "nonpayable",
      "type": "function"
    },
    {
      "inputs": [],
      "name": "willAdmin",
      "outputs": [
        {
          "internalType": "address",
          "name": "",
          "type": "address"
        }
      ],
      "stateMutability": "view",
      "type": "function"
    },
    {
      "inputs": [],
      "name": "willAdminBalance_NATIVE",
      "outputs": [
        {
          "internalType": "uint256",
          "name": "",
          "type": "uint256"
        }
      ],
      "stateMutability": "view",
      "type": "function"
    },
    {
      "inputs": [],
      "name": "willAdminBalance_STABLE",
      "outputs": [
        {
          "internalType": "uint256",
          "name": "",
          "type": "uint256"
        }
      ],
      "stateMutability": "view",
      "type": "function"
    },
    {
      "inputs": [
        {
          "internalType": "uint256",
          "name": "",
          "type": "uint256"
        }
      ],
      "name": "willBeneficiaries",
      "outputs": [
        {
          "internalType": "address",
          "name": "",
          "type": "address"
        }
      ],
      "stateMutability": "view",
      "type": "function"
    },
    {
      "inputs": [],
      "name": "willGeneralMessage",
      "outputs": [
        {
          "internalType": "string",
          "name": "",
          "type": "string"
        }
      ],
      "stateMutability": "view",
      "type": "function"
    },
    {
      "inputs": [],
      "name": "willIssueBlockNum",
      "outputs": [
        {
          "internalType": "uint256",
          "name": "",
          "type": "uint256"
        }
      ],
      "stateMutability": "view",
      "type": "function"
    },
    {
      "inputs": [],
      "name": "willIssueTimeStamp",
      "outputs": [
        {
          "internalType": "uint256",
          "name": "",
          "type": "uint256"
        }
      ],
      "stateMutability": "view",
      "type": "function"
    },
    {
      "inputs": [],
      "name": "willStage",
      "outputs": [
        {
          "internalType": "uint256",
          "name": "",
          "type": "uint256"
        }
      ],
      "stateMutability": "view",
      "type": "function"
    },
    {
      "inputs": [],
      "name": "willState",
      "outputs": [
        {
          "internalType": "bool",
          "name": "",
          "type": "bool"
        }
      ],
      "stateMutability": "view",
      "type": "function"
    },
    {
      "inputs": [],
      "name": "willSwapState",
      "outputs": [
        {
          "internalType": "bool",
          "name": "",
          "type": "bool"
        }
      ],
      "stateMutability": "view",
      "type": "function"
    },
    {
      "inputs": [],
      "name": "withdrawFees",
      "outputs": [],
      "stateMutability": "nonpayable",
      "type": "function"
    },
    {
      "inputs": [],
      "name": "withdrawSC",
      "outputs": [],
      "stateMutability": "nonpayable",
      "type": "function"
    },
    {
      "stateMutability": "payable",
      "type": "receive"
    }
  ],
  "bytecode": "0x60806040526108046000806101000a81548173ffffffffffffffffffffffffffffffffffffffff021916908373ffffffffffffffffffffffffffffffffffffffff160217905550610803600160006101000a81548173ffffffffffffffffffffffffffffffffffffffff021916908373ffffffffffffffffffffffffffffffffffffffff1602179055506a0100000000000000000001600260006101000a81548173ffffffffffffffffffffffffffffffffffffffff021916908373ffffffffffffffffffffffffffffffffffffffff1602179055506a0100000000000000000000600360006101000a81548173ffffffffffffffffffffffffffffffffffffffff021916908373ffffffffffffffffffffffffffffffffffffffff160217905550738731732996d815e34da3eda6f13277a919b3d0d8600460006101000a81548173ffffffffffffffffffffffffffffffffffffffff021916908373ffffffffffffffffffffffffffffffffffffffff1602179055506000601260006101000a81548160ff0219169083151502179055506001602060006101000a81548160ff02191690831515021790555060006021553480156101bd57600080fd5b5033600860006101000a81548173ffffffffffffffffffffffffffffffffffffffff021916908373ffffffffffffffffffffffffffffffffffffffff160217905550616c15806200020f6000396000f3fe6080604052600436106104e55760003560e01c8063885d034d11610281578063c30054c01161015a578063e0d4ad99116100cc578063f29588c711610085578063f29588c714611387578063f6c5c80d146113b2578063fc5e67b0146113c9578063fcd311f514611406578063fd45892114611431578063ff8822e21461145c57610525565b8063e0d4ad9914611287578063e18b7ac5146112c4578063e2c41dbc146112ef578063e5ecfea214611306578063ed42e56e14611331578063f24a534e1461135c57610525565b8063d4990c231161011e578063d4990c2314611163578063d4da0121146111a0578063d54dc1ab146111c9578063d7f269fe146111f4578063d8fa638d1461121f578063d9dc7fcd1461125c57610525565b8063c30054c01461107c578063c4969815146110a7578063c5f956af146110d2578063cbc549dd146110fd578063cbdbc9a61461112657610525565b8063b0dadb7b116101f3578063b59a4cf9116101b7578063b59a4cf914610f90578063b59f7b6f14610fbb578063ba61653714610fe6578063bacbd7cc1461100f578063c133d1871461103a578063c1e1eb271461106557610525565b8063b0dadb7b14610ecd578063b0e9415114610ef8578063b19a889714610f0f578063b32c935614610f3a578063b3d27bc514610f6557610525565b8063a1b5622611610245578063a1b5622614610dcf578063a2addd6814610dfa578063a5770a5414610e37578063a71532cd14610e62578063a7a657b614610e8b578063abe79d8c14610ea257610525565b8063885d034d14610ce657806388c0b6cf14610d11578063910e94d114610d3c578063948eead214610d67578063969f7c1914610da457610525565b806349569b82116103be5780636878a79c1161033057806377a2caab116102e957806377a2caab14610be4578063783dc03d14610c0f57806380935aa914610c3a57806380bd60e814610c6557806386b230a414610c9057806387b44f7714610cbb57610525565b80636878a79c14610ad25780636c3dcff314610b0f5780636cd83f1814610b3a57806371c49b8e14610b6557806372f0196f14610b90578063778e44e414610bb957610525565b806359a01a281161038257806359a01a28146109e45780635b9c2435146109fb5780635c8177a214610a265780635d499e8214610a515780636022c7ab14610a7c578063610ee92b14610aa757610525565b806349569b82146109115780634a88090a146109285780634eefe90f14610953578063530c1b9a1461099057806357b36c49146109bb57610525565b80632968f79711610457578063320ebd391161041b578063320ebd391461082557806336e02950146108505780633c89c4901461087b5780633ca01aed146108b85780633d1fc5e4146108cf578063476343ee146108fa57610525565b80632968f7971461072c5780632a41f8e4146107555780632afa5124146107925780632e476337146107cf5780632fd7d1fd146107fa57610525565b806318ad37af116104a957806318ad37af1461061857806318dca9ba1461064357806319550da41461066e5780631973912f146106995780631f927675146106d65780631fa93c701461070157610525565b8063015677391461052a578063033ebae91461056c5780630a4cad6b14610597578063133c5ff5146105c2578063137e0d86146105ed57610525565b36610525577f88a5966d370b9919b20f3e2c13ff65706f196a4e32cc2c12bf57088f88525874333460405161051b9291906162dd565b60405180910390a1005b600080fd5b34801561053657600080fd5b50610551600480360381019061054c9190615987565b611487565b6040516105639695949392919061626e565b60405180910390f35b34801561057857600080fd5b50610581611613565b60405161058e9190616515565b60405180910390f35b3480156105a357600080fd5b506105ac611619565b6040516105b99190616123565b60405180910390f35b3480156105ce57600080fd5b506105d7611628565b6040516105e49190616306565b60405180910390f35b3480156105f957600080fd5b506106026116b6565b60405161060f9190616123565b60405180910390f35b34801561062457600080fd5b5061062d6116dc565b60405161063a9190616123565b60405180910390f35b34801561064f57600080fd5b506106586116eb565b6040516106659190616123565b60405180910390f35b34801561067a57600080fd5b506106836116fa565b6040516106909190616123565b60405180910390f35b3480156106a557600080fd5b506106c060048036038101906106bb9190615b37565b611709565b6040516106cd9190616123565b60405180910390f35b3480156106e257600080fd5b506106eb611757565b6040516106f89190616123565b60405180910390f35b34801561070d57600080fd5b50610716611766565b6040516107239190616515565b60405180910390f35b34801561073857600080fd5b50610753600480360381019061074e91906159b0565b61176c565b005b34801561076157600080fd5b5061077c60048036038101906107779190615c6c565b611ab6565b6040516107899190616123565b60405180910390f35b34801561079e57600080fd5b506107b960048036038101906107b49190615c6c565b611af5565b6040516107c69190616123565b60405180910390f35b3480156107db57600080fd5b506107e4611b34565b6040516107f19190616123565b60405180910390f35b34801561080657600080fd5b5061080f611b5a565b60405161081c9190616123565b60405180910390f35b34801561083157600080fd5b5061083a611b69565b6040516108479190616306565b60405180910390f35b34801561085c57600080fd5b50610865611bf7565b6040516108729190616123565b60405180910390f35b34801561088757600080fd5b506108a2600480360381019061089d9190615987565b611c06565b6040516108af9190616396565b60405180910390f35b3480156108c457600080fd5b506108cd611c26565b005b3480156108db57600080fd5b506108e4611f06565b6040516108f19190616396565b60405180910390f35b34801561090657600080fd5b5061090f611f19565b005b34801561091d57600080fd5b5061092661213b565b005b34801561093457600080fd5b5061093d612486565b60405161094a9190616515565b60405180910390f35b34801561095f57600080fd5b5061097a600480360381019061097591906159b0565b61248c565b6040516109879190616515565b60405180910390f35b34801561099c57600080fd5b506109a56124b1565b6040516109b29190616515565b60405180910390f35b3480156109c757600080fd5b506109e260048036038101906109dd9190615987565b6124b7565b005b3480156109f057600080fd5b506109f9612a13565b005b348015610a0757600080fd5b50610a10612a4e565b604051610a1d9190616515565b60405180910390f35b348015610a3257600080fd5b50610a3b612a54565b604051610a489190616515565b60405180910390f35b348015610a5d57600080fd5b50610a66612a5d565b604051610a739190616123565b60405180910390f35b348015610a8857600080fd5b50610a91612a6c565b604051610a9e9190616123565b60405180910390f35b348015610ab357600080fd5b50610abc612a7b565b604051610ac99190616515565b60405180910390f35b348015610ade57600080fd5b50610af96004803603810190610af491906159b0565b612a81565b604051610b069190616396565b60405180910390f35b348015610b1b57600080fd5b50610b24612ab0565b604051610b3191906163b1565b60405180910390f35b348015610b4657600080fd5b50610b4f612b3e565b604051610b5c9190616123565b60405180910390f35b348015610b7157600080fd5b50610b7a612b4d565b604051610b879190616515565b60405180910390f35b348015610b9c57600080fd5b50610bb76004803603810190610bb291906159ec565b612b53565b005b348015610bc557600080fd5b50610bce612e0a565b604051610bdb9190616515565b60405180910390f35b348015610bf057600080fd5b50610bf9612e10565b604051610c069190616515565b60405180910390f35b348015610c1b57600080fd5b50610c24612e16565b604051610c319190616123565b60405180910390f35b348015610c4657600080fd5b50610c4f612e25565b604051610c5c9190616123565b60405180910390f35b348015610c7157600080fd5b50610c7a612e2b565b604051610c879190616123565b60405180910390f35b348015610c9c57600080fd5b50610ca5612e3a565b604051610cb29190616515565b60405180910390f35b348015610cc757600080fd5b50610cd0612e50565b604051610cdd9190616515565b60405180910390f35b348015610cf257600080fd5b50610cfb6130de565b604051610d089190616515565b60405180910390f35b348015610d1d57600080fd5b50610d266130e4565b604051610d339190616515565b60405180910390f35b348015610d4857600080fd5b50610d516130ea565b604051610d5e9190616396565b60405180910390f35b348015610d7357600080fd5b50610d8e6004803603810190610d8991906159b0565b6130fd565b604051610d9b9190616515565b60405180910390f35b348015610db057600080fd5b50610db9613197565b604051610dc69190616515565b60405180910390f35b348015610ddb57600080fd5b50610de461319d565b604051610df19190616123565b60405180910390f35b348015610e0657600080fd5b50610e216004803603810190610e1c9190615c6c565b6131ac565b604051610e2e9190616123565b60405180910390f35b348015610e4357600080fd5b50610e4c6131eb565b604051610e599190616123565b60405180910390f35b348015610e6e57600080fd5b50610e896004803603810190610e849190615b37565b6131fa565b005b348015610e9757600080fd5b50610ea0613484565b005b348015610eae57600080fd5b50610eb76135a3565b604051610ec49190616515565b60405180910390f35b348015610ed957600080fd5b50610ee26135a9565b604051610eef9190616123565b60405180910390f35b348015610f0457600080fd5b50610f0d6135af565b005b348015610f1b57600080fd5b50610f24613855565b604051610f319190616123565b60405180910390f35b348015610f4657600080fd5b50610f4f61387b565b604051610f5c9190616515565b60405180910390f35b348015610f7157600080fd5b50610f7a613883565b604051610f879190616123565b60405180910390f35b348015610f9c57600080fd5b50610fa5613892565b604051610fb29190616396565b60405180910390f35b348015610fc757600080fd5b50610fd0613b5a565b604051610fdd9190616306565b60405180910390f35b348015610ff257600080fd5b5061100d60048036038101906110089190615a87565b613be8565b005b34801561101b57600080fd5b50611024613eee565b6040516110319190616123565b60405180910390f35b34801561104657600080fd5b5061104f613efd565b60405161105c9190616515565b60405180910390f35b34801561107157600080fd5b5061107a613f03565b005b34801561108857600080fd5b50611091613fdc565b60405161109e9190616123565b60405180910390f35b3480156110b357600080fd5b506110bc613feb565b6040516110c99190616123565b60405180910390f35b3480156110de57600080fd5b506110e7613ffa565b6040516110f49190616123565b60405180910390f35b34801561110957600080fd5b50611124600480360381019061111f9190615bdd565b614020565b005b34801561113257600080fd5b5061114d60048036038101906111489190615987565b614062565b60405161115a91906164f3565b60405180910390f35b34801561116f57600080fd5b5061118a60048036038101906111859190615987565b61429f565b6040516111979190616515565b60405180910390f35b3480156111ac57600080fd5b506111c760048036038101906111c29190615987565b6142b7565b005b3480156111d557600080fd5b506111de614375565b6040516111eb9190616123565b60405180910390f35b34801561120057600080fd5b50611209614384565b6040516112169190616123565b60405180910390f35b34801561122b57600080fd5b5061124660048036038101906112419190615987565b614393565b6040516112539190616396565b60405180910390f35b34801561126857600080fd5b506112716143b3565b60405161127e9190616123565b60405180910390f35b34801561129357600080fd5b506112ae60048036038101906112a991906159b0565b6143b9565b6040516112bb9190616515565b60405180910390f35b3480156112d057600080fd5b506112d96143de565b6040516112e69190616123565b60405180910390f35b3480156112fb57600080fd5b506113046143ed565b005b34801561131257600080fd5b5061131b614746565b6040516113289190616515565b60405180910390f35b34801561133d57600080fd5b5061134661474c565b6040516113539190616515565b60405180910390f35b34801561136857600080fd5b50611371614752565b60405161137e9190616123565b60405180910390f35b34801561139357600080fd5b5061139c614758565b6040516113a99190616123565b60405180910390f35b3480156113be57600080fd5b506113c7614767565b005b3480156113d557600080fd5b506113f060048036038101906113eb9190615c6c565b614976565b6040516113fd9190616123565b60405180910390f35b34801561141257600080fd5b5061141b6149b5565b6040516114289190616515565b60405180910390f35b34801561143d57600080fd5b506114466149ca565b6040516114539190616123565b60405180910390f35b34801561146857600080fd5b506114716149d9565b60405161147e9190616515565b60405180910390f35b60256020528060005260406000206000915090508060000160009054906101000a900473ffffffffffffffffffffffffffffffffffffffff16908060010180546114d090616864565b80601f01602080910402602001604051908101604052809291908181526020018280546114fc90616864565b80156115495780601f1061151e57610100808354040283529160200191611549565b820191906000526020600020905b81548152906001019060200180831161152c57829003601f168201915b50505050509080600201805461155e90616864565b80601f016020809104026020016040519081016040528092919081815260200182805461158a90616864565b80156115d75780601f106115ac576101008083540402835291602001916115d7565b820191906000526020600020905b8154815290600101906020018083116115ba57829003601f168201915b5050505050908060030154908060040160009054906101000a900473ffffffffffffffffffffffffffffffffffffffff16908060050154905086565b601b5481565b6a020000000002000000000181565b606060098054806020026020016040519081016040528092919081815260200182805480156116ac57602002820191906000526020600020905b8160009054906101000a900473ffffffffffffffffffffffffffffffffffffffff1673ffffffffffffffffffffffffffffffffffffffff1681526020019060010190808311611662575b5050505050905090565b600260009054906101000a900473ffffffffffffffffffffffffffffffffffffffff1681565b6a010000000000000000008181565b6a020000000014000000000181565b6a01000000000000000000ac81565b600f602052816000526040600020818154811061172557600080fd5b906000526020600020016000915091509054906101000a900473ffffffffffffffffffffffffffffffffffffffff1681565b6a010000000000000000008381565b60145481565b600a60008373ffffffffffffffffffffffffffffffffffffffff1673ffffffffffffffffffffffffffffffffffffffff16815260200190815260200160002060009054906101000a900460ff166117f8576040517f08c379a00000000000000000000000000000000000000000000000000000000081526004016117ef90616493565b60405180910390fd5b600e60008373ffffffffffffffffffffffffffffffffffffffff1673ffffffffffffffffffffffffffffffffffffffff16815260200190815260200160002060008273ffffffffffffffffffffffffffffffffffffffff1673ffffffffffffffffffffffffffffffffffffffff16815260200190815260200160002060009054906101000a900460ff16156118c2576040517f08c379a00000000000000000000000000000000000000000000000000000000081526004016118b9906163d3565b60405180910390fd5b6001600e60008473ffffffffffffffffffffffffffffffffffffffff1673ffffffffffffffffffffffffffffffffffffffff16815260200190815260200160002060008373ffffffffffffffffffffffffffffffffffffffff1673ffffffffffffffffffffffffffffffffffffffff16815260200190815260200160002060006101000a81548160ff021916908315150217905550600f60008373ffffffffffffffffffffffffffffffffffffffff1673ffffffffffffffffffffffffffffffffffffffff168152602001908152602001600020819080600181540180825580915050600190039060005260206000200160009091909190916101000a81548173ffffffffffffffffffffffffffffffffffffffff021916908373ffffffffffffffffffffffffffffffffffffffff1602179055506001600d60008373ffffffffffffffffffffffffffffffffffffffff1673ffffffffffffffffffffffffffffffffffffffff16815260200190815260200160002060006101000a81548160ff021916908315150217905550600c819080600181540180825580915050600190039060005260206000200160009091909190916101000a81548173ffffffffffffffffffffffffffffffffffffffff021916908373ffffffffffffffffffffffffffffffffffffffff1602179055505050565b600c8181548110611ac657600080fd5b906000526020600020016000915054906101000a900473ffffffffffffffffffffffffffffffffffffffff1681565b60238181548110611b0557600080fd5b906000526020600020016000915054906101000a900473ffffffffffffffffffffffffffffffffffffffff1681565b600360009054906101000a900473ffffffffffffffffffffffffffffffffffffffff1681565b6a010000000000000000000181565b60606024805480602002602001604051908101604052809291908181526020018280548015611bed57602002820191906000526020600020905b8160009054906101000a900473ffffffffffffffffffffffffffffffffffffffff1673ffffffffffffffffffffffffffffffffffffffff1681526020019060010190808311611ba3575b5050505050905090565b6a010000000000000000000281565b600d6020528060005260406000206000915054906101000a900460ff1681565b600860009054906101000a900473ffffffffffffffffffffffffffffffffffffffff1673ffffffffffffffffffffffffffffffffffffffff163373ffffffffffffffffffffffffffffffffffffffff1614611cb6576040517f08c379a0000000000000000000000000000000000000000000000000000000008152600401611cad90616413565b60405180910390fd5b601260009054906101000a900460ff16611d05576040517f08c379a0000000000000000000000000000000000000000000000000000000008152600401611cfc90616433565b60405180910390fd5b611d0d61213b565b6000601260006101000a81548160ff021916908315150217905550611d30614767565b60005b602480549050811015611e7d57600060248281548110611d7c577f4e487b7100000000000000000000000000000000000000000000000000000000600052603260045260246000fd5b9060005260206000200160009054906101000a900473ffffffffffffffffffffffffffffffffffffffff169050602560008273ffffffffffffffffffffffffffffffffffffffff1673ffffffffffffffffffffffffffffffffffffffff168152602001908152602001600020600080820160006101000a81549073ffffffffffffffffffffffffffffffffffffffff0219169055600182016000611e2091906155c4565b600282016000611e3091906155c4565b60038201600090556004820160006101000a81549073ffffffffffffffffffffffffffffffffffffffff021916905560058201600090555050508080611e75906168c7565b915050611d33565b50600067ffffffffffffffff811115611ebf577f4e487b7100000000000000000000000000000000000000000000000000000000600052604160045260246000fd5b604051908082528060200260200182016040528015611eed5781602001602082028036833780820191505090505b5060249080519060200190611f03929190615604565b50565b601260009054906101000a900460ff1681565b600860009054906101000a900473ffffffffffffffffffffffffffffffffffffffff1673ffffffffffffffffffffffffffffffffffffffff163373ffffffffffffffffffffffffffffffffffffffff1614611fa9576040517f08c379a0000000000000000000000000000000000000000000000000000000008152600401611fa090616413565b60405180910390fd5b6004601f5414156120465764e8d4a510006001611fc691906166e0565b47111561203757600460009054906101000a900473ffffffffffffffffffffffffffffffffffffffff1673ffffffffffffffffffffffffffffffffffffffff166108fc479081150290604051600060405180830381858888f19350505050158015612035573d6000803e3d6000fd5b505b61204160046149df565b612073565b64e8d4a51000600161205891906166e0565b47111561206857612067613f03565b5b61207260036149df565b5b600060116000600360009054906101000a900473ffffffffffffffffffffffffffffffffffffffff1673ffffffffffffffffffffffffffffffffffffffff1673ffffffffffffffffffffffffffffffffffffffff1681526020019081526020016000206000600860009054906101000a900473ffffffffffffffffffffffffffffffffffffffff1673ffffffffffffffffffffffffffffffffffffffff1673ffffffffffffffffffffffffffffffffffffffff16815260200190815260200160002081905550565b60005b60098054905081101561248357600060098281548110612187577f4e487b7100000000000000000000000000000000000000000000000000000000600052603260045260246000fd5b9060005260206000200160009054906101000a900473ffffffffffffffffffffffffffffffffffffffff16905060005b600f60008373ffffffffffffffffffffffffffffffffffffffff1673ffffffffffffffffffffffffffffffffffffffff1681526020019081526020016000208054905081101561246e576000600f60008473ffffffffffffffffffffffffffffffffffffffff1673ffffffffffffffffffffffffffffffffffffffff168152602001908152602001600020828154811061227a577f4e487b7100000000000000000000000000000000000000000000000000000000600052603260045260246000fd5b9060005260206000200160009054906101000a900473ffffffffffffffffffffffffffffffffffffffff16905060008190506000601060008473ffffffffffffffffffffffffffffffffffffffff1673ffffffffffffffffffffffffffffffffffffffff16815260200190815260200160002060008673ffffffffffffffffffffffffffffffffffffffff1673ffffffffffffffffffffffffffffffffffffffff16815260200190815260200160002054905060008111156124585780601060008573ffffffffffffffffffffffffffffffffffffffff1673ffffffffffffffffffffffffffffffffffffffff16815260200190815260200160002060008773ffffffffffffffffffffffffffffffffffffffff1673ffffffffffffffffffffffffffffffffffffffff16815260200190815260200160002060008282546123c2919061673a565b925050819055508173ffffffffffffffffffffffffffffffffffffffff1663a9059cbb86836040518363ffffffff1660e01b81526004016124049291906162dd565b602060405180830381600087803b15801561241e57600080fd5b505af1158015612432573d6000803e3d6000fd5b505050506040513d601f19601f820116820180604052508101906124569190615b73565b505b5050508080612466906168c7565b9150506121b7565b5050808061247b906168c7565b91505061213e565b50565b60135481565b6011602052816000526040600020602052806000526040600020600091509150505481565b60215481565b600860009054906101000a900473ffffffffffffffffffffffffffffffffffffffff1673ffffffffffffffffffffffffffffffffffffffff163373ffffffffffffffffffffffffffffffffffffffff1614612547576040517f08c379a000000000000000000000000000000000000000000000000000000000815260040161253e90616413565b60405180910390fd5b6000602560008373ffffffffffffffffffffffffffffffffffffffff1673ffffffffffffffffffffffffffffffffffffffff1681526020019081526020016000206040518060c00160405290816000820160009054906101000a900473ffffffffffffffffffffffffffffffffffffffff1673ffffffffffffffffffffffffffffffffffffffff1673ffffffffffffffffffffffffffffffffffffffff1681526020016001820180546125f990616864565b80601f016020809104026020016040519081016040528092919081815260200182805461262590616864565b80156126725780601f1061264757610100808354040283529160200191612672565b820191906000526020600020905b81548152906001019060200180831161265557829003601f168201915b5050505050815260200160028201805461268b90616864565b80601f01602080910402602001604051908101604052809291908181526020018280546126b790616864565b80156127045780601f106126d957610100808354040283529160200191612704565b820191906000526020600020905b8154815290600101906020018083116126e757829003601f168201915b50505050508152602001600382015481526020016004820160009054906101000a900473ffffffffffffffffffffffffffffffffffffffff1673ffffffffffffffffffffffffffffffffffffffff1673ffffffffffffffffffffffffffffffffffffffff1681526020016005820154815250509050600073ffffffffffffffffffffffffffffffffffffffff16816000015173ffffffffffffffffffffffffffffffffffffffff1614612a0f576000602480549050905060018111156128e05760008260a00151905060016024805490506127df919061673a565b81146128de57602460016024805490506127f9919061673a565b81548110612830577f4e487b7100000000000000000000000000000000000000000000000000000000600052603260045260246000fd5b9060005260206000200160009054906101000a900473ffffffffffffffffffffffffffffffffffffffff1660248281548110612895577f4e487b7100000000000000000000000000000000000000000000000000000000600052603260045260246000fd5b9060005260206000200160006101000a81548173ffffffffffffffffffffffffffffffffffffffff021916908373ffffffffffffffffffffffffffffffffffffffff1602179055505b505b6024805480612918577f4e487b7100000000000000000000000000000000000000000000000000000000600052603160045260246000fd5b6001900381819060005260206000200160006101000a81549073ffffffffffffffffffffffffffffffffffffffff02191690559055602560008473ffffffffffffffffffffffffffffffffffffffff1673ffffffffffffffffffffffffffffffffffffffff168152602001908152602001600020600080820160006101000a81549073ffffffffffffffffffffffffffffffffffffffff02191690556001820160006129c491906155c4565b6002820160006129d491906155c4565b60038201600090556004820160006101000a81549073ffffffffffffffffffffffffffffffffffffffff021916905560058201600090555050505b5050565b6000600260009054906101000a900473ffffffffffffffffffffffffffffffffffffffff16905060046007541415612a4a57612a4b565b5b50565b601d5481565b64e8d4a5100081565b6a020000000082000000008181565b6a010000000000000000000381565b60175481565b600e6020528160005260406000206020528060005260406000206000915091509054906101000a900460ff1681565b60158054612abd90616864565b80601f0160208091040260200160405190810160405280929190818152602001828054612ae990616864565b8015612b365780601f10612b0b57610100808354040283529160200191612b36565b820191906000526020600020905b815481529060010190602001808311612b1957829003601f168201915b505050505081565b6a01000000000000000000aa81565b60225481565b600860009054906101000a900473ffffffffffffffffffffffffffffffffffffffff1673ffffffffffffffffffffffffffffffffffffffff163373ffffffffffffffffffffffffffffffffffffffff1614612be3576040517f08c379a0000000000000000000000000000000000000000000000000000000008152600401612bda90616413565b60405180910390fd5b8484604051612bf39291906160f3565b6040518091039020602560008873ffffffffffffffffffffffffffffffffffffffff1673ffffffffffffffffffffffffffffffffffffffff168152602001908152602001600020600101604051612c4a919061610c565b604051809103902014612caa578484602560008973ffffffffffffffffffffffffffffffffffffffff1673ffffffffffffffffffffffffffffffffffffffff1681526020019081526020016000206001019190612ca892919061568e565b505b8282604051612cba9291906160f3565b6040518091039020602560008873ffffffffffffffffffffffffffffffffffffffff1673ffffffffffffffffffffffffffffffffffffffff168152602001908152602001600020600201604051612d11919061610c565b604051809103902014612d71578282602560008973ffffffffffffffffffffffffffffffffffffffff1673ffffffffffffffffffffffffffffffffffffffff1681526020019081526020016000206002019190612d6f92919061568e565b505b80602560008873ffffffffffffffffffffffffffffffffffffffff1673ffffffffffffffffffffffffffffffffffffffff1681526020019081526020016000206003015414612e025780602560008873ffffffffffffffffffffffffffffffffffffffff1673ffffffffffffffffffffffffffffffffffffffff168152602001908152602001600020600301819055505b505050505050565b60055481565b60075481565b6a010000000000000000008481565b61080481565b6a020000000080000000008181565b64e8d4a510006107d0612e4d91906166e0565b81565b6000601e5443118015612e6557506005601f54145b15612e7f576006601f81905550612e7a614767565b612f6c565b601e5443118015612e9257506005601f54105b15612ec7576005601f819055506000601260006101000a81548160ff021916908315150217905550612ec26149e9565b612f6b565b601d5443118015612eda57506004601f54105b15612ef4576004601f81905550612eef614f22565b612f6a565b601c5443118015612f0757506003601f54105b15612f21576003601f81905550612f1c6143ed565b612f69565b601b5443118015612f3457506002601f54105b15612f46576002601f81905550612f68565b601a5443118015612f5957506001601f54105b15612f67576001601f819055505b5b5b5b5b5b6006601f5410156130d657600160009054906101000a900473ffffffffffffffffffffffffffffffffffffffff1673ffffffffffffffffffffffffffffffffffffffff1663168d560d306000620f424061138860026040516024016040516020818303038152906040527f87b44f77000000000000000000000000000000000000000000000000000000007bffffffffffffffffffffffffffffffffffffffffffffffffffffffff19166020820180517bffffffffffffffffffffffffffffffffffffffffffffffffffffffff83818316178352505050506040518763ffffffff1660e01b81526004016130659695949392919061619e565b600060405180830381600087803b15801561307f57600080fd5b505af1158015613093573d6000803e3d6000fd5b505050506040513d6000823e3d601f19601f820116820180604052508101906130bc9190615b9c565b50602160008154809291906130d0906168c7565b91905055505b601f54905090565b601e5481565b601c5481565b602060009054906101000a900460ff1681565b6000808290508073ffffffffffffffffffffffffffffffffffffffff1663dd62ed3e85306040518363ffffffff1660e01b815260040161313e92919061613e565b60206040518083038186803b15801561315657600080fd5b505afa15801561316a573d6000803e3d6000fd5b505050506040513d601f19601f8201168201806040525081019061318e9190615c95565b91505092915050565b601f5481565b6a010000000000000000000081565b600981815481106131bc57600080fd5b906000526020600020016000915054906101000a900473ffffffffffffffffffffffffffffffffffffffff1681565b6a020000000000000000000181565b600860009054906101000a900473ffffffffffffffffffffffffffffffffffffffff1673ffffffffffffffffffffffffffffffffffffffff163373ffffffffffffffffffffffffffffffffffffffff161461328a576040517f08c379a000000000000000000000000000000000000000000000000000000000815260040161328190616413565b60405180910390fd5b60008290508073ffffffffffffffffffffffffffffffffffffffff1663dd62ed3e33306040518363ffffffff1660e01b81526004016132ca92919061613e565b60206040518083038186803b1580156132e257600080fd5b505afa1580156132f6573d6000803e3d6000fd5b505050506040513d601f19601f8201168201806040525081019061331a9190615c95565b82111561335c576040517f08c379a0000000000000000000000000000000000000000000000000000000008152600401613353906164d3565b60405180910390fd5b8073ffffffffffffffffffffffffffffffffffffffff166323b872dd3330856040518463ffffffff1660e01b815260040161339993929190616167565b602060405180830381600087803b1580156133b357600080fd5b505af11580156133c7573d6000803e3d6000fd5b505050506040513d601f19601f820116820180604052508101906133eb9190615b73565b5081601160008573ffffffffffffffffffffffffffffffffffffffff1673ffffffffffffffffffffffffffffffffffffffff16815260200190815260200160002060003373ffffffffffffffffffffffffffffffffffffffff1673ffffffffffffffffffffffffffffffffffffffff16815260200190815260200160002060008282546134789190616659565b92505081905550505050565b3073ffffffffffffffffffffffffffffffffffffffff163373ffffffffffffffffffffffffffffffffffffffff16148061350b5750600860009054906101000a900473ffffffffffffffffffffffffffffffffffffffff1673ffffffffffffffffffffffffffffffffffffffff163373ffffffffffffffffffffffffffffffffffffffff16145b61354a576040517f08c379a0000000000000000000000000000000000000000000000000000000008152600401613541906163f3565b60405180910390fd5b601260009054906101000a900460ff16613599576040517f08c379a000000000000000000000000000000000000000000000000000000000815260040161359090616433565b60405180910390fd5b6135a161554f565b565b60195481565b61080381565b601260009054906101000a900460ff16156135ff576040517f08c379a00000000000000000000000000000000000000000000000000000000081526004016135f690616453565b60405180910390fd5b43601381905550426014819055506016544361361b9190616659565b601a81905550601754601654436136329190616659565b61363c9190616659565b601b81905550601854601754601654436136569190616659565b6136609190616659565b61366a9190616659565b601c81905550601954601854601754601654436136879190616659565b6136919190616659565b61369b9190616659565b6136a59190616659565b601d819055506005601954601854601754601654436136c49190616659565b6136ce9190616659565b6136d89190616659565b6136e29190616659565b6136ec9190616659565b601e819055506001601260006101000a81548160ff021916908315150217905550600160009054906101000a900473ffffffffffffffffffffffffffffffffffffffff1673ffffffffffffffffffffffffffffffffffffffff1663168d560d306000620f424061138860056040516024016040516020818303038152906040527f87b44f77000000000000000000000000000000000000000000000000000000007bffffffffffffffffffffffffffffffffffffffffffffffffffffffff19166020820180517bffffffffffffffffffffffffffffffffffffffffffffffffffffffff83818316178352505050506040518763ffffffff1660e01b81526004016137fb96959493929190616206565b600060405180830381600087803b15801561381557600080fd5b505af1158015613829573d6000803e3d6000fd5b505050506040513d6000823e3d601f19601f820116820180604052508101906138529190615b9c565b50565b600860009054906101000a900473ffffffffffffffffffffffffffffffffffffffff1681565b600047905090565b6a010000000000000000008081565b6000601260009054906101000a900460ff166138e3576040517f08c379a00000000000000000000000000000000000000000000000000000000081526004016138da90616433565b60405180910390fd5b600860009054906101000a900473ffffffffffffffffffffffffffffffffffffffff1673ffffffffffffffffffffffffffffffffffffffff163373ffffffffffffffffffffffffffffffffffffffff161415613974576040517f08c379a000000000000000000000000000000000000000000000000000000000815260040161396b906164b3565b60405180910390fd5b6000805b6009805490508110801561398a575081155b15613b52576000600982815481106139cb577f4e487b7100000000000000000000000000000000000000000000000000000000600052603260045260246000fd5b9060005260206000200160009054906101000a900473ffffffffffffffffffffffffffffffffffffffff16905060008173ffffffffffffffffffffffffffffffffffffffff16319050600b60008373ffffffffffffffffffffffffffffffffffffffff1673ffffffffffffffffffffffffffffffffffffffff16815260200190815260200160002054811015613ab0576001935080600b60008473ffffffffffffffffffffffffffffffffffffffff1673ffffffffffffffffffffffffffffffffffffffff16815260200190815260200160002081905550613aab61554f565b613b3d565b600b60008373ffffffffffffffffffffffffffffffffffffffff1673ffffffffffffffffffffffffffffffffffffffff16815260200190815260200160002054811115613b3c5780600b60008473ffffffffffffffffffffffffffffffffffffffff1673ffffffffffffffffffffffffffffffffffffffff168152602001908152602001600020819055505b5b8280613b48906168c7565b9350505050613978565b819250505090565b6060600c805480602002602001604051908101604052809291908181526020018280548015613bde57602002820191906000526020600020905b8160009054906101000a900473ffffffffffffffffffffffffffffffffffffffff1673ffffffffffffffffffffffffffffffffffffffff1681526020019060010190808311613b94575b5050505050905090565b600860009054906101000a900473ffffffffffffffffffffffffffffffffffffffff1673ffffffffffffffffffffffffffffffffffffffff163373ffffffffffffffffffffffffffffffffffffffff1614613c78576040517f08c379a0000000000000000000000000000000000000000000000000000000008152600401613c6f90616413565b60405180910390fd5b60006040518060c001604052808973ffffffffffffffffffffffffffffffffffffffff16815260200188888080601f016020809104026020016040519081016040528093929190818152602001838380828437600081840152601f19601f82011690508083019250505050505050815260200186868080601f016020809104026020016040519081016040528093929190818152602001838380828437600081840152601f19601f8201169050808301925050505050505081526020018481526020018373ffffffffffffffffffffffffffffffffffffffff16815260200160248054905081525090506024889080600181540180825580915050600190039060005260206000200160009091909190916101000a81548173ffffffffffffffffffffffffffffffffffffffff021916908373ffffffffffffffffffffffffffffffffffffffff16021790555080602560008a73ffffffffffffffffffffffffffffffffffffffff1673ffffffffffffffffffffffffffffffffffffffff16815260200190815260200160002060008201518160000160006101000a81548173ffffffffffffffffffffffffffffffffffffffff021916908373ffffffffffffffffffffffffffffffffffffffff1602179055506020820151816001019080519060200190613e68929190615714565b506040820151816002019080519060200190613e85929190615714565b506060820151816003015560808201518160040160006101000a81548173ffffffffffffffffffffffffffffffffffffffff021916908373ffffffffffffffffffffffffffffffffffffffff16021790555060a082015181600501559050505050505050505050565b6a020000000083000000008181565b60185481565b600860009054906101000a900473ffffffffffffffffffffffffffffffffffffffff1673ffffffffffffffffffffffffffffffffffffffff163373ffffffffffffffffffffffffffffffffffffffff1614613f93576040517f08c379a0000000000000000000000000000000000000000000000000000000008152600401613f8a90616413565b60405180910390fd5b3373ffffffffffffffffffffffffffffffffffffffff166108fc479081150290604051600060405180830381858888f19350505050158015613fd9573d6000803e3d6000fd5b50565b6a010000000000000000008281565b6a010000000000000000001581565b600460009054906101000a900473ffffffffffffffffffffffffffffffffffffffff1681565b8460159080519060200190614036929190615714565b50836016819055508260178190555081601881905550806019819055506000601f819055505050505050565b61406a61579a565b602560008373ffffffffffffffffffffffffffffffffffffffff1673ffffffffffffffffffffffffffffffffffffffff1681526020019081526020016000206040518060c00160405290816000820160009054906101000a900473ffffffffffffffffffffffffffffffffffffffff1673ffffffffffffffffffffffffffffffffffffffff1673ffffffffffffffffffffffffffffffffffffffff16815260200160018201805461411a90616864565b80601f016020809104026020016040519081016040528092919081815260200182805461414690616864565b80156141935780601f1061416857610100808354040283529160200191614193565b820191906000526020600020905b81548152906001019060200180831161417657829003601f168201915b505050505081526020016002820180546141ac90616864565b80601f01602080910402602001604051908101604052809291908181526020018280546141d890616864565b80156142255780601f106141fa57610100808354040283529160200191614225565b820191906000526020600020905b81548152906001019060200180831161420857829003601f168201915b50505050508152602001600382015481526020016004820160009054906101000a900473ffffffffffffffffffffffffffffffffffffffff1673ffffffffffffffffffffffffffffffffffffffff1673ffffffffffffffffffffffffffffffffffffffff1681526020016005820154815250509050919050565b600b6020528060005260406000206000915090505481565b6009819080600181540180825580915050600190039060005260206000200160009091909190916101000a81548173ffffffffffffffffffffffffffffffffffffffff021916908373ffffffffffffffffffffffffffffffffffffffff1602179055506001600a60008373ffffffffffffffffffffffffffffffffffffffff1673ffffffffffffffffffffffffffffffffffffffff16815260200190815260200160002060006101000a81548160ff02191690831515021790555050565b6a01000000000000000000ab81565b6a010000000000000000001481565b600a6020528060005260406000206000915054906101000a900460ff1681565b61080081565b6010602052816000526040600020602052806000526040600020600091509150505481565b6a020000000003000000000181565b60005b60098054905081101561474357600060098281548110614439577f4e487b7100000000000000000000000000000000000000000000000000000000600052603260045260246000fd5b9060005260206000200160009054906101000a900473ffffffffffffffffffffffffffffffffffffffff16905060005b600f60008373ffffffffffffffffffffffffffffffffffffffff1673ffffffffffffffffffffffffffffffffffffffff1681526020019081526020016000208054905081101561472e576000600f60008473ffffffffffffffffffffffffffffffffffffffff1673ffffffffffffffffffffffffffffffffffffffff168152602001908152602001600020828154811061452c577f4e487b7100000000000000000000000000000000000000000000000000000000600052603260045260246000fd5b9060005260206000200160009054906101000a900473ffffffffffffffffffffffffffffffffffffffff169050600081905060008173ffffffffffffffffffffffffffffffffffffffff166370a08231866040518263ffffffff1660e01b81526004016145999190616123565b60206040518083038186803b1580156145b157600080fd5b505afa1580156145c5573d6000803e3d6000fd5b505050506040513d601f19601f820116820180604052508101906145e99190615c95565b90506000811115614718578173ffffffffffffffffffffffffffffffffffffffff166323b872dd8630846040518463ffffffff1660e01b815260040161463193929190616167565b602060405180830381600087803b15801561464b57600080fd5b505af115801561465f573d6000803e3d6000fd5b505050506040513d601f19601f820116820180604052508101906146839190615b73565b5080601060008573ffffffffffffffffffffffffffffffffffffffff1673ffffffffffffffffffffffffffffffffffffffff16815260200190815260200160002060008773ffffffffffffffffffffffffffffffffffffffff1673ffffffffffffffffffffffffffffffffffffffff16815260200190815260200160002060008282546147109190616659565b925050819055505b5050508080614726906168c7565b915050614469565b5050808061473b906168c7565b9150506143f0565b50565b60165481565b601a5481565b61080181565b6a01000000000000000000a881565b604051806020016040528060008152506015908051906020019061478c929190615714565b506000601681905550600060178190555060006018819055506000601981905550600060138190555060006014819055506000601a819055506000601b819055506000601c819055506000601d819055506000601e819055506001602060006101000a81548160ff021916908315150217905550600060228190555060005b6009805490508110156148ed57600060098281548110614854577f4e487b7100000000000000000000000000000000000000000000000000000000600052603260045260246000fd5b9060005260206000200160009054906101000a900473ffffffffffffffffffffffffffffffffffffffff1690506000600a60008373ffffffffffffffffffffffffffffffffffffffff1673ffffffffffffffffffffffffffffffffffffffff16815260200190815260200160002060006101000a81548160ff0219169083151502179055505080806148e5906168c7565b91505061480b565b50600067ffffffffffffffff81111561492f577f4e487b7100000000000000000000000000000000000000000000000000000000600052604160045260246000fd5b60405190808252806020026020018201604052801561495d5781602001602082028036833780820191505090505b5060099080519060200190614973929190615604565b50565b6024818154811061498657600080fd5b906000526020600020016000915054906101000a900473ffffffffffffffffffffffffffffffffffffffff1681565b64e8d4a5100060026149c791906166e0565b81565b6a01000000000000000000a981565b60065481565b8060078190555050565b600080600260009054906101000a900473ffffffffffffffffffffffffffffffffffffffff16905060005b602480549050811015614e9757600060248281548110614a5d577f4e487b7100000000000000000000000000000000000000000000000000000000600052603260045260246000fd5b9060005260206000200160009054906101000a900473ffffffffffffffffffffffffffffffffffffffff1690506000602560008373ffffffffffffffffffffffffffffffffffffffff1673ffffffffffffffffffffffffffffffffffffffff1681526020019081526020016000206040518060c00160405290816000820160009054906101000a900473ffffffffffffffffffffffffffffffffffffffff1673ffffffffffffffffffffffffffffffffffffffff1673ffffffffffffffffffffffffffffffffffffffff168152602001600182018054614b3c90616864565b80601f0160208091040260200160405190810160405280929190818152602001828054614b6890616864565b8015614bb55780601f10614b8a57610100808354040283529160200191614bb5565b820191906000526020600020905b815481529060010190602001808311614b9857829003601f168201915b50505050508152602001600282018054614bce90616864565b80601f0160208091040260200160405190810160405280929190818152602001828054614bfa90616864565b8015614c475780601f10614c1c57610100808354040283529160200191614c47565b820191906000526020600020905b815481529060010190602001808311614c2a57829003601f168201915b50505050508152602001600382015481526020016004820160009054906101000a900473ffffffffffffffffffffffffffffffffffffffff1673ffffffffffffffffffffffffffffffffffffffff1673ffffffffffffffffffffffffffffffffffffffff1681526020016005820154815250509050600081606001511115614dc25760006001602480549050614cdd919061673a565b841015614d175781606001516064602254614cf891906166af565b614d0291906166e0565b90508086614d109190616659565b9550614d28565b85602254614d25919061673a565b90505b6000811115614dc0578473ffffffffffffffffffffffffffffffffffffffff1663a9059cbb84836040518363ffffffff1660e01b8152600401614d6c9291906162dd565b602060405180830381600087803b158015614d8657600080fd5b505af1158015614d9a573d6000803e3d6000fd5b505050506040513d601f19601f82011682018060405250810190614dbe9190615b73565b505b505b602560008373ffffffffffffffffffffffffffffffffffffffff1673ffffffffffffffffffffffffffffffffffffffff168152602001908152602001600020600080820160006101000a81549073ffffffffffffffffffffffffffffffffffffffff0219169055600182016000614e3991906155c4565b600282016000614e4991906155c4565b60038201600090556004820160006101000a81549073ffffffffffffffffffffffffffffffffffffffff02191690556005820160009055505050508080614e8f906168c7565b915050614a14565b50600067ffffffffffffffff811115614ed9577f4e487b7100000000000000000000000000000000000000000000000000000000600052604160045260246000fd5b604051908082528060200260200182016040528015614f075781602001602082028036833780820191505090505b5060249080519060200190614f1d929190615604565b505050565b60005b60098054905081101561553157600060098281548110614f6e577f4e487b7100000000000000000000000000000000000000000000000000000000600052603260045260246000fd5b9060005260206000200160009054906101000a900473ffffffffffffffffffffffffffffffffffffffff16905060005b600f60008373ffffffffffffffffffffffffffffffffffffffff1673ffffffffffffffffffffffffffffffffffffffff1681526020019081526020016000208054905081101561551c576000600f60008473ffffffffffffffffffffffffffffffffffffffff1673ffffffffffffffffffffffffffffffffffffffff1681526020019081526020016000208281548110615061577f4e487b7100000000000000000000000000000000000000000000000000000000600052603260045260246000fd5b9060005260206000200160009054906101000a900473ffffffffffffffffffffffffffffffffffffffff1690506000601060008373ffffffffffffffffffffffffffffffffffffffff1673ffffffffffffffffffffffffffffffffffffffff16815260200190815260200160002060008573ffffffffffffffffffffffffffffffffffffffff1673ffffffffffffffffffffffffffffffffffffffff168152602001908152602001600020549050600081111561550757600260009054906101000a900473ffffffffffffffffffffffffffffffffffffffff1673ffffffffffffffffffffffffffffffffffffffff168273ffffffffffffffffffffffffffffffffffffffff1614615495576000600267ffffffffffffffff8111156151b0577f4e487b7100000000000000000000000000000000000000000000000000000000600052604160045260246000fd5b6040519080825280602002602001820160405280156151de5781602001602082028036833780820191505090505b509050828160008151811061521c577f4e487b7100000000000000000000000000000000000000000000000000000000600052603260045260246000fd5b602002602001019073ffffffffffffffffffffffffffffffffffffffff16908173ffffffffffffffffffffffffffffffffffffffff16815250506a01000000000000000000018160018151811061529c577f4e487b7100000000000000000000000000000000000000000000000000000000600052603260045260246000fd5b602002602001019073ffffffffffffffffffffffffffffffffffffffff16908173ffffffffffffffffffffffffffffffffffffffff168152505060008060009054906101000a900473ffffffffffffffffffffffffffffffffffffffff1673ffffffffffffffffffffffffffffffffffffffff16634d60beb183856040518363ffffffff1660e01b8152600401615334929190616328565b60206040518083038186803b15801561534c57600080fd5b505afa158015615360573d6000803e3d6000fd5b505050506040513d601f19601f820116820180604052508101906153849190615c95565b905060008054906101000a900473ffffffffffffffffffffffffffffffffffffffff1673ffffffffffffffffffffffffffffffffffffffff16636fc4b4e5838560016040518463ffffffff1660e01b81526004016153e493929190616358565b602060405180830381600087803b1580156153fe57600080fd5b505af1158015615412573d6000803e3d6000fd5b505050506040513d601f19601f820116820180604052508101906154369190615b73565b615475576040517f08c379a000000000000000000000000000000000000000000000000000000000815260040161546c90616473565b60405180910390fd5b80602260008282546154879190616659565b925050819055505050615506565b600260009054906101000a900473ffffffffffffffffffffffffffffffffffffffff1673ffffffffffffffffffffffffffffffffffffffff168273ffffffffffffffffffffffffffffffffffffffff1614156155055780602260008282546154fd9190616659565b925050819055505b5b5b50508080615514906168c7565b915050614f9e565b50508080615529906168c7565b915050614f25565b506000602060006101000a81548160ff021916908315150217905550565b6016544361555d9190616659565b601a81905550601754601a546155739190616659565b601b81905550601854601b546155899190616659565b601c81905550601954601c5461559f9190616659565b601d819055506005601d546155b49190616659565b601e819055506000601f81905550565b5080546155d090616864565b6000825580601f106155e25750615601565b601f01602090049060005260206000209081019061560091906157fc565b5b50565b82805482825590600052602060002090810192821561567d579160200282015b8281111561567c5782518260006101000a81548173ffffffffffffffffffffffffffffffffffffffff021916908373ffffffffffffffffffffffffffffffffffffffff16021790555091602001919060010190615624565b5b50905061568a91906157fc565b5090565b82805461569a90616864565b90600052602060002090601f0160209004810192826156bc5760008555615703565b82601f106156d557803560ff1916838001178555615703565b82800160010185558215615703579182015b828111156157025782358255916020019190600101906156e7565b5b50905061571091906157fc565b5090565b82805461572090616864565b90600052602060002090601f0160209004810192826157425760008555615789565b82601f1061575b57805160ff1916838001178555615789565b82800160010185558215615789579182015b8281111561578857825182559160200191906001019061576d565b5b50905061579691906157fc565b5090565b6040518060c00160405280600073ffffffffffffffffffffffffffffffffffffffff168152602001606081526020016060815260200160008152602001600073ffffffffffffffffffffffffffffffffffffffff168152602001600081525090565b5b808211156158155760008160009055506001016157fd565b5090565b600061582c61582784616555565b616530565b90508281526020810184848401111561584457600080fd5b61584f848285616831565b509392505050565b600061586a61586584616586565b616530565b90508281526020810184848401111561588257600080fd5b61588d848285616822565b509392505050565b6000813590506158a481616b9a565b92915050565b6000815190506158b981616bb1565b92915050565b600082601f8301126158d057600080fd5b81516158e0848260208601615819565b91505092915050565b60008083601f8401126158fb57600080fd5b8235905067ffffffffffffffff81111561591457600080fd5b60208301915083600182028301111561592c57600080fd5b9250929050565b600082601f83011261594457600080fd5b8135615954848260208601615857565b91505092915050565b60008135905061596c81616bc8565b92915050565b60008151905061598181616bc8565b92915050565b60006020828403121561599957600080fd5b60006159a784828501615895565b91505092915050565b600080604083850312156159c357600080fd5b60006159d185828601615895565b92505060206159e285828601615895565b9150509250929050565b60008060008060008060808789031215615a0557600080fd5b6000615a1389828a01615895565b965050602087013567ffffffffffffffff811115615a3057600080fd5b615a3c89828a016158e9565b9550955050604087013567ffffffffffffffff811115615a5b57600080fd5b615a6789828a016158e9565b93509350506060615a7a89828a0161595d565b9150509295509295509295565b600080600080600080600060a0888a031215615aa257600080fd5b6000615ab08a828b01615895565b975050602088013567ffffffffffffffff811115615acd57600080fd5b615ad98a828b016158e9565b9650965050604088013567ffffffffffffffff811115615af857600080fd5b615b048a828b016158e9565b94509450506060615b178a828b0161595d565b9250506080615b288a828b01615895565b91505092959891949750929550565b60008060408385031215615b4a57600080fd5b6000615b5885828601615895565b9250506020615b698582860161595d565b9150509250929050565b600060208284031215615b8557600080fd5b6000615b93848285016158aa565b91505092915050565b600060208284031215615bae57600080fd5b600082015167ffffffffffffffff811115615bc857600080fd5b615bd4848285016158bf565b91505092915050565b600080600080600060a08688031215615bf557600080fd5b600086013567ffffffffffffffff811115615c0f57600080fd5b615c1b88828901615933565b9550506020615c2c8882890161595d565b9450506040615c3d8882890161595d565b9350506060615c4e8882890161595d565b9250506080615c5f8882890161595d565b9150509295509295909350565b600060208284031215615c7e57600080fd5b6000615c8c8482850161595d565b91505092915050565b600060208284031215615ca757600080fd5b6000615cb584828501615972565b91505092915050565b6000615cca8383615cd6565b60208301905092915050565b615cdf8161676e565b82525050565b615cee8161676e565b82525050565b6000615cff826165dc565b615d09818561660a565b9350615d14836165b7565b8060005b83811015615d45578151615d2c8882615cbe565b9750615d37836165fd565b925050600181019050615d18565b5085935050505092915050565b615d5b81616780565b82525050565b6000615d6d838561662c565b9350615d7a838584616822565b82840190509392505050565b6000615d91826165e7565b615d9b818561661b565b9350615dab818560208601616831565b615db4816169cc565b840191505092915050565b60008154615dcc81616864565b615dd6818661662c565b94506001821660008114615df15760018114615e0257615e35565b60ff19831686528186019350615e35565b615e0b856165c7565b60005b83811015615e2d57815481890152600182019150602081019050615e0e565b838801955050505b50505092915050565b615e47816167b6565b82525050565b615e56816167c8565b82525050565b615e65816167da565b82525050565b615e74816167ec565b82525050565b615e83816167fe565b82525050565b615e9281616810565b82525050565b6000615ea3826165f2565b615ead8185616637565b9350615ebd818560208601616831565b615ec6816169cc565b840191505092915050565b6000615edc826165f2565b615ee68185616648565b9350615ef6818560208601616831565b615eff816169cc565b840191505092915050565b6000615f17602c83616648565b9150615f22826169dd565b604082019050919050565b6000615f3a602083616648565b9150615f4582616a2c565b602082019050919050565b6000615f5d601583616648565b9150615f6882616a55565b602082019050919050565b6000615f80601383616648565b9150615f8b82616a7e565b602082019050919050565b6000615fa3601983616648565b9150615fae82616aa7565b602082019050919050565b6000615fc6601383616648565b9150615fd182616ad0565b602082019050919050565b6000615fe9601883616648565b9150615ff482616af9565b602082019050919050565b600061600c601483616648565b915061601782616b22565b602082019050919050565b600061602f602283616648565b915061603a82616b4b565b604082019050919050565b600060c08301600083015161605d6000860182615cd6565b50602083015184820360208601526160758282615e98565b9150506040830151848203604086015261608f8282615e98565b91505060608301516160a460608601826160d5565b5060808301516160b76080860182615cd6565b5060a08301516160ca60a08601826160d5565b508091505092915050565b6160de816167ac565b82525050565b6160ed816167ac565b82525050565b6000616100828486615d61565b91508190509392505050565b60006161188284615dbf565b915081905092915050565b60006020820190506161386000830184615ce5565b92915050565b60006040820190506161536000830185615ce5565b6161606020830184615ce5565b9392505050565b600060608201905061617c6000830186615ce5565b6161896020830185615ce5565b61619660408301846160e4565b949350505050565b600060c0820190506161b36000830189615ce5565b6161c06020830188615e3e565b6161cd6040830187615e4d565b6161da6060830186615e7a565b6161e76080830185615e6b565b81810360a08301526161f98184615d86565b9050979650505050505050565b600060c08201905061621b6000830189615ce5565b6162286020830188615e3e565b6162356040830187615e4d565b6162426060830186615e7a565b61624f6080830185615e89565b81810360a08301526162618184615d86565b9050979650505050505050565b600060c0820190506162836000830189615ce5565b81810360208301526162958188615ed1565b905081810360408301526162a98187615ed1565b90506162b860608301866160e4565b6162c56080830185615ce5565b6162d260a08301846160e4565b979650505050505050565b60006040820190506162f26000830185615ce5565b6162ff60208301846160e4565b9392505050565b600060208201905081810360008301526163208184615cf4565b905092915050565b600060408201905081810360008301526163428185615cf4565b905061635160208301846160e4565b9392505050565b600060608201905081810360008301526163728186615cf4565b905061638160208301856160e4565b61638e6040830184615e5c565b949350505050565b60006020820190506163ab6000830184615d52565b92915050565b600060208201905081810360008301526163cb8184615ed1565b905092915050565b600060208201905081810360008301526163ec81615f0a565b9050919050565b6000602082019050818103600083015261640c81615f2d565b9050919050565b6000602082019050818103600083015261642c81615f50565b9050919050565b6000602082019050818103600083015261644c81615f73565b9050919050565b6000602082019050818103600083015261646c81615f96565b9050919050565b6000602082019050818103600083015261648c81615fb9565b9050919050565b600060208201905081810360008301526164ac81615fdc565b9050919050565b600060208201905081810360008301526164cc81615fff565b9050919050565b600060208201905081810360008301526164ec81616022565b9050919050565b6000602082019050818103600083015261650d8184616045565b905092915050565b600060208201905061652a60008301846160e4565b92915050565b600061653a61654b565b90506165468282616896565b919050565b6000604051905090565b600067ffffffffffffffff8211156165705761656f61699d565b5b616579826169cc565b9050602081019050919050565b600067ffffffffffffffff8211156165a1576165a061699d565b5b6165aa826169cc565b9050602081019050919050565b6000819050602082019050919050565b60008190508160005260206000209050919050565b600081519050919050565b600081519050919050565b600081519050919050565b6000602082019050919050565b600082825260208201905092915050565b600082825260208201905092915050565b600081905092915050565b600082825260208201905092915050565b600082825260208201905092915050565b6000616664826167ac565b915061666f836167ac565b9250827fffffffffffffffffffffffffffffffffffffffffffffffffffffffffffffffff038211156166a4576166a3616910565b5b828201905092915050565b60006166ba826167ac565b91506166c5836167ac565b9250826166d5576166d461693f565b5b828204905092915050565b60006166eb826167ac565b91506166f6836167ac565b9250817fffffffffffffffffffffffffffffffffffffffffffffffffffffffffffffffff048311821515161561672f5761672e616910565b5b828202905092915050565b6000616745826167ac565b9150616750836167ac565b92508282101561676357616762616910565b5b828203905092915050565b60006167798261678c565b9050919050565b60008115159050919050565b600073ffffffffffffffffffffffffffffffffffffffff82169050919050565b6000819050919050565b60006167c1826167ac565b9050919050565b60006167d3826167ac565b9050919050565b60006167e5826167ac565b9050919050565b60006167f7826167ac565b9050919050565b6000616809826167ac565b9050919050565b600061681b826167ac565b9050919050565b82818337600083830152505050565b60005b8381101561684f578082015181840152602081019050616834565b8381111561685e576000848401525b50505050565b6000600282049050600182168061687c57607f821691505b602082108114156168905761688f61696e565b5b50919050565b61689f826169cc565b810181811067ffffffffffffffff821117156168be576168bd61699d565b5b80604052505050565b60006168d2826167ac565b91507fffffffffffffffffffffffffffffffffffffffffffffffffffffffffffffffff82141561690557616904616910565b5b600182019050919050565b7f4e487b7100000000000000000000000000000000000000000000000000000000600052601160045260246000fd5b7f4e487b7100000000000000000000000000000000000000000000000000000000600052601260045260246000fd5b7f4e487b7100000000000000000000000000000000000000000000000000000000600052602260045260246000fd5b7f4e487b7100000000000000000000000000000000000000000000000000000000600052604160045260246000fd5b6000601f19601f8301169050919050565b7f746f6b656e20697320616c7265616479207265676973746572656420666f722060008201527f74686973206163636f756e740000000000000000000000000000000000000000602082015250565b7f616374696f6e206f6e6c7920666f722077696c6c207363206f722061646d696e600082015250565b7f616374696f6e206f6e6c7920666f722061646d696e0000000000000000000000600082015250565b7f57696c6c2053746174652069732046616c736500000000000000000000000000600082015250565b7f77696c6c537461746520697320616c7265616479207472756500000000000000600082015250565b7f457363726f773a2053776170206661696c656400000000000000000000000000600082015250565b7f61636f756e74206973206e6f7420726567697374657265640000000000000000600082015250565b7f616374696f6e206e6f7420666f722061646d696e000000000000000000000000600082015250565b7f636c69656e74206e6565647320746f20696e63726561736520616c6c6f77616e60008201527f6365000000000000000000000000000000000000000000000000000000000000602082015250565b616ba38161676e565b8114616bae57600080fd5b50565b616bba81616780565b8114616bc557600080fd5b50565b616bd1816167ac565b8114616bdc57600080fd5b5056fea2646970667358221220798fc665011c72a3702ef899df8acdcdf9adba2e4f75a84570bb84a80eb6ac0164736f6c63430008040033",
  "linkReferences": {},
  "deployedLinkReferences": {}
}