{
  "contractName": "ntt54_Oracle",
  "abi": [
    {
      "inputs": [
        {
          "internalType": "address",
          "name": "_admin",
          "type": "address"
        }
      ],
      "stateMutability": "nonpayable",
      "type": "constructor"
    },
    {
      "inputs": [
        {
          "internalType": "bytes32",
          "name": "",
          "type": "bytes32"
        }
      ],
      "name": "activeTicker",
      "outputs": [
        {
          "internalType": "bool",
          "name": "active",
          "type": "bool"
        },
        {
          "internalType": "uint256",
          "name": "index",
          "type": "uint256"
        }
      ],
      "stateMutability": "view",
      "type": "function",
      "constant": true
    },
    {
      "inputs": [],
      "name": "admin",
      "outputs": [
        {
          "internalType": "address",
          "name": "",
          "type": "address"
        }
      ],
      "stateMutability": "view",
      "type": "function",
      "constant": true
    },
    {
      "inputs": [
        {
          "internalType": "address",
          "name": "",
          "type": "address"
        }
      ],
      "name": "priceReporters",
      "outputs": [
        {
          "internalType": "bool",
          "name": "",
          "type": "bool"
        }
      ],
      "stateMutability": "view",
      "type": "function",
      "constant": true
    },
    {
      "inputs": [
        {
          "internalType": "uint256",
          "name": "",
          "type": "uint256"
        }
      ],
      "name": "tickers",
      "outputs": [
        {
          "internalType": "bytes32",
          "name": "",
          "type": "bytes32"
        }
      ],
      "stateMutability": "view",
      "type": "function",
      "constant": true
    },
    {
      "inputs": [],
      "name": "getLastUpdateBlockNum",
      "outputs": [
        {
          "internalType": "uint256",
          "name": "",
          "type": "uint256"
        }
      ],
      "stateMutability": "view",
      "type": "function",
      "constant": true
    },
    {
      "inputs": [],
      "name": "getTickers",
      "outputs": [
        {
          "internalType": "bytes32[]",
          "name": "",
          "type": "bytes32[]"
        }
      ],
      "stateMutability": "view",
      "type": "function",
      "constant": true
    },
    {
      "inputs": [
        {
          "internalType": "address",
          "name": "price_reporter",
          "type": "address"
        },
        {
          "internalType": "bool",
          "name": "approved",
          "type": "bool"
        }
      ],
      "name": "approvePriceReporter",
      "outputs": [],
      "stateMutability": "nonpayable",
      "type": "function"
    },
    {
      "inputs": [
        {
          "internalType": "bytes32[]",
          "name": "_tickers",
          "type": "bytes32[]"
        },
        {
          "internalType": "bytes8[]",
          "name": "_tiks",
          "type": "bytes8[]"
        }
      ],
      "name": "updateTickers",
      "outputs": [],
      "stateMutability": "nonpayable",
      "type": "function"
    },
    {
      "inputs": [
        {
          "internalType": "bytes32[]",
          "name": "_tickers",
          "type": "bytes32[]"
        },
        {
          "internalType": "address[]",
          "name": "_addresses",
          "type": "address[]"
        }
      ],
      "name": "updateTokenAddresses",
      "outputs": [],
      "stateMutability": "nonpayable",
      "type": "function"
    },
    {
      "inputs": [
        {
          "internalType": "bytes32",
          "name": "_removeTicker",
          "type": "bytes32"
        }
      ],
      "name": "removeTicker",
      "outputs": [],
      "stateMutability": "nonpayable",
      "type": "function"
    },
    {
      "inputs": [
        {
          "internalType": "uint256[]",
          "name": "prices",
          "type": "uint256[]"
        },
        {
          "internalType": "uint256[]",
          "name": "mcs",
          "type": "uint256[]"
        }
      ],
      "name": "updateData",
      "outputs": [],
      "stateMutability": "nonpayable",
      "type": "function"
    },
    {
      "inputs": [
        {
          "internalType": "bytes32",
          "name": "ticker",
          "type": "bytes32"
        }
      ],
      "name": "getData",
      "outputs": [
        {
          "internalType": "bool",
          "name": "tickerExists",
          "type": "bool"
        },
        {
          "internalType": "bytes8",
          "name": "tik",
          "type": "bytes8"
        },
        {
          "internalType": "uint256",
          "name": "timestamp",
          "type": "uint256"
        },
        {
          "internalType": "uint256",
          "name": "last_price",
          "type": "uint256"
        },
        {
          "internalType": "uint256",
          "name": "marketCap",
          "type": "uint256"
        },
        {
          "internalType": "address",
          "name": "tokenAddress",
          "type": "address"
        }
      ],
      "stateMutability": "view",
      "type": "function",
      "constant": true
    },
    {
      "inputs": [],
      "name": "getAllData",
      "outputs": [
        {
          "internalType": "bytes32[]",
          "name": "",
          "type": "bytes32[]"
        },
        {
          "internalType": "bytes8[]",
          "name": "",
          "type": "bytes8[]"
        },
        {
          "internalType": "uint256[]",
          "name": "",
          "type": "uint256[]"
        },
        {
          "internalType": "uint256[]",
          "name": "",
          "type": "uint256[]"
        },
        {
          "internalType": "uint256[]",
          "name": "",
          "type": "uint256[]"
        },
        {
          "internalType": "address[]",
          "name": "",
          "type": "address[]"
        }
      ],
      "stateMutability": "view",
      "type": "function",
      "constant": true
    }
  ],
  "bytecode": "0x60806040523480156200001157600080fd5b506040516200268c3803806200268c833981810160405281019062000037919062000095565b806000806101000a81548173ffffffffffffffffffffffffffffffffffffffff021916908373ffffffffffffffffffffffffffffffffffffffff160217905550506200010f565b6000815190506200008f81620000f5565b92915050565b600060208284031215620000a857600080fd5b6000620000b8848285016200007e565b91505092915050565b6000620000ce82620000d5565b9050919050565b600073ffffffffffffffffffffffffffffffffffffffff82169050919050565b6200010081620000c1565b81146200010c57600080fd5b50565b61256d806200011f6000396000f3fe608060405234801561001057600080fd5b50600436106100cf5760003560e01c8063a4539a2b1161008c578063c57a68ad11610066578063c57a68ad1461021a578063c950c57e14610236578063d70abb7714610267578063f851a44014610285576100cf565b8063a4539a2b146101b2578063aca572e5146101ce578063c45c98e2146101ea576100cf565b806301068dea146100d457806301be08f3146100f2578063025201f61461010e5780632d10fa281461013e57806354f6127f1461016157806385535bbb14610196575b600080fd5b6100dc6102a3565b6040516100e99190611fd1565b60405180910390f35b61010c600480360381019061010791906119e6565b6102fb565b005b61012860048036038101906101239190611897565b6105bb565b604051610135919061207e565b60405180910390f35b6101466105db565b60405161015896959493929190611ff3565b60405180910390f35b61017b60048036038101906101769190611a52565b610bae565b60405161018d96959493929190612099565b60405180910390f35b6101b060048036038101906101ab9190611971565b610cac565b005b6101cc60048036038101906101c79190611a52565b611020565b005b6101e860048036038101906101e391906118fc565b6112e6565b005b61020460048036038101906101ff9190611aa4565b611544565b6040516102119190612123565b60405180910390f35b610234600480360381019061022f91906118c0565b611568565b005b610250600480360381019061024b9190611a52565b611651565b60405161025e9291906120fa565b60405180910390f35b61026f611682565b60405161027c91906121fe565b60405180910390f35b61028d61168c565b60405161029a9190611fb6565b60405180910390f35b606060018054806020026020016040519081016040528092919081815260200182805480156102f157602002820191906000526020600020905b8154815260200190600101908083116102dd575b5050505050905090565b60011515600360003373ffffffffffffffffffffffffffffffffffffffff1673ffffffffffffffffffffffffffffffffffffffff16815260200190815260200160002060009054906101000a900460ff1615151461038e576040517f08c379a00000000000000000000000000000000000000000000000000000000081526004016103859061219e565b60405180910390fd5b81516001805490501480156103a857508051600180549050145b6103e7576040517f08c379a00000000000000000000000000000000000000000000000000000000081526004016103de906121be565b60405180910390fd5b6103f0436116b0565b600042905060005b6001805490508110156105b557816004600060018481548110610444577f4e487b7100000000000000000000000000000000000000000000000000000000600052603260045260246000fd5b906000526020600020015481526020019081526020016000206001018190555083818151811061049d577f4e487b7100000000000000000000000000000000000000000000000000000000600052603260045260246000fd5b602002602001015160046000600184815481106104e3577f4e487b7100000000000000000000000000000000000000000000000000000000600052603260045260246000fd5b906000526020600020015481526020019081526020016000206002018190555082818151811061053c577f4e487b7100000000000000000000000000000000000000000000000000000000600052603260045260246000fd5b60200260200101516004600060018481548110610582577f4e487b7100000000000000000000000000000000000000000000000000000000600052603260045260246000fd5b906000526020600020015481526020019081526020016000206003018190555080806105ad9061241d565b9150506103f8565b50505050565b60036020528060005260406000206000915054906101000a900460ff1681565b6060806060806060806000600180549050905060008111610631576040517f08c379a0000000000000000000000000000000000000000000000000000000008152600401610628906121de565b60405180910390fd5b60008167ffffffffffffffff811115610673577f4e487b7100000000000000000000000000000000000000000000000000000000600052604160045260246000fd5b6040519080825280602002602001820160405280156106a15781602001602082028036833780820191505090505b50905060008267ffffffffffffffff8111156106e6577f4e487b7100000000000000000000000000000000000000000000000000000000600052604160045260246000fd5b6040519080825280602002602001820160405280156107145781602001602082028036833780820191505090505b50905060008367ffffffffffffffff811115610759577f4e487b7100000000000000000000000000000000000000000000000000000000600052604160045260246000fd5b6040519080825280602002602001820160405280156107875781602001602082028036833780820191505090505b50905060008467ffffffffffffffff8111156107cc577f4e487b7100000000000000000000000000000000000000000000000000000000600052604160045260246000fd5b6040519080825280602002602001820160405280156107fa5781602001602082028036833780820191505090505b50905060008567ffffffffffffffff81111561083f577f4e487b7100000000000000000000000000000000000000000000000000000000600052604160045260246000fd5b60405190808252806020026020018201604052801561086d5781602001602082028036833780820191505090505b509050600080600090505b87811015610b3957600181815481106108ba577f4e487b7100000000000000000000000000000000000000000000000000000000600052603260045260246000fd5b906000526020600020015491506004600083815260200190815260200160002060000160009054906101000a900460c01b878281518110610924577f4e487b7100000000000000000000000000000000000000000000000000000000600052603260045260246000fd5b602002602001019077ffffffffffffffffffffffffffffffffffffffffffffffff1916908177ffffffffffffffffffffffffffffffffffffffffffffffff19168152505060046000838152602001908152602001600020600101548682815181106109b8577f4e487b7100000000000000000000000000000000000000000000000000000000600052603260045260246000fd5b6020026020010181815250506004600083815260200190815260200160002060020154858281518110610a14577f4e487b7100000000000000000000000000000000000000000000000000000000600052603260045260246000fd5b6020026020010181815250506004600083815260200190815260200160002060030154848281518110610a70577f4e487b7100000000000000000000000000000000000000000000000000000000600052603260045260246000fd5b6020026020010181815250506004600083815260200190815260200160002060040160009054906101000a900473ffffffffffffffffffffffffffffffffffffffff16838281518110610aec577f4e487b7100000000000000000000000000000000000000000000000000000000600052603260045260246000fd5b602002602001019073ffffffffffffffffffffffffffffffffffffffff16908173ffffffffffffffffffffffffffffffffffffffff16815250508080610b319061241d565b915050610878565b506001868686868685805480602002602001604051908101604052809291908181526020018280548015610b8c57602002820191906000526020600020905b815481526020019060010190808311610b78575b505050505095509c509c509c509c509c509c5050505050505050909192939495565b600080600080600080600060046000898152602001908152602001600020600101541415610bf45760008060008060008093929190955095509550955095509550610ca3565b60016004600089815260200190815260200160002060000160009054906101000a900460c01b600460008a815260200190815260200160002060010154600460008b815260200190815260200160002060020154600460008c815260200190815260200160002060030154600460008d815260200190815260200160002060040160009054906101000a900473ffffffffffffffffffffffffffffffffffffffff169550955095509550955095505b91939550919395565b60008054906101000a900473ffffffffffffffffffffffffffffffffffffffff1673ffffffffffffffffffffffffffffffffffffffff163373ffffffffffffffffffffffffffffffffffffffff1614610d3a576040517f08c379a0000000000000000000000000000000000000000000000000000000008152600401610d319061217e565b60405180910390fd5b600084849050118015610d5257508181905084849050145b610d91576040517f08c379a0000000000000000000000000000000000000000000000000000000008152600401610d889061213e565b60405180910390fd5b60005b84849050811015611019576000151560056000878785818110610de0577f4e487b7100000000000000000000000000000000000000000000000000000000600052603260045260246000fd5b90506020020135815260200190815260200160002060000160009054906101000a900460ff161515141561100657600160056000878785818110610e4d577f4e487b7100000000000000000000000000000000000000000000000000000000600052603260045260246000fd5b90506020020135815260200190815260200160002060000160006101000a81548160ff02191690831515021790555060018054905060056000878785818110610ebf577f4e487b7100000000000000000000000000000000000000000000000000000000600052603260045260246000fd5b905060200201358152602001908152602001600020600101819055506001858583818110610f16577f4e487b7100000000000000000000000000000000000000000000000000000000600052603260045260246000fd5b905060200201359080600181540180825580915050600190039060005260206000200160009091909190915055828282818110610f7c577f4e487b7100000000000000000000000000000000000000000000000000000000600052603260045260246000fd5b9050602002016020810190610f919190611a7b565b60046000878785818110610fce577f4e487b7100000000000000000000000000000000000000000000000000000000600052603260045260246000fd5b90506020020135815260200190815260200160002060000160006101000a81548167ffffffffffffffff021916908360c01c02179055505b80806110119061241d565b915050610d94565b5050505050565b60008054906101000a900473ffffffffffffffffffffffffffffffffffffffff1673ffffffffffffffffffffffffffffffffffffffff163373ffffffffffffffffffffffffffffffffffffffff16146110ae576040517f08c379a00000000000000000000000000000000000000000000000000000000081526004016110a59061217e565b60405180910390fd5b600115156005600083815260200190815260200160002060000160009054906101000a900460ff16151514156112e35760006005600083815260200190815260200160002060000160006101000a81548160ff021916908315150217905550600060056000838152602001908152602001600020600101549050600180808054905061113a919061236b565b81548110611171577f4e487b7100000000000000000000000000000000000000000000000000000000600052603260045260246000fd5b9060005260206000200154600182815481106111b6577f4e487b7100000000000000000000000000000000000000000000000000000000600052603260045260246000fd5b9060005260206000200181905550806005600060018481548110611203577f4e487b7100000000000000000000000000000000000000000000000000000000600052603260045260246000fd5b9060005260206000200154815260200190815260200160002060010181905550600180548061125b577f4e487b7100000000000000000000000000000000000000000000000000000000600052603160045260246000fd5b6001900381819060005260206000200160009055905560046000838152602001908152602001600020600080820160006101000a81549067ffffffffffffffff02191690556001820160009055600282016000905560038201600090556004820160006101000a81549073ffffffffffffffffffffffffffffffffffffffff02191690555050505b50565b60008054906101000a900473ffffffffffffffffffffffffffffffffffffffff1673ffffffffffffffffffffffffffffffffffffffff163373ffffffffffffffffffffffffffffffffffffffff1614611374576040517f08c379a000000000000000000000000000000000000000000000000000000000815260040161136b9061217e565b60405180910390fd5b60008282905011801561138c57508181905084849050145b6113cb576040517f08c379a00000000000000000000000000000000000000000000000000000000081526004016113c29061215e565b60405180910390fd5b60005b8282905081101561153d57600115156005600087878581811061141a577f4e487b7100000000000000000000000000000000000000000000000000000000600052603260045260246000fd5b90506020020135815260200190815260200160002060000160009054906101000a900460ff161515141561152a57828282818110611481577f4e487b7100000000000000000000000000000000000000000000000000000000600052603260045260246000fd5b90506020020160208101906114969190611897565b600460008787858181106114d3577f4e487b7100000000000000000000000000000000000000000000000000000000600052603260045260246000fd5b90506020020135815260200190815260200160002060040160006101000a81548173ffffffffffffffffffffffffffffffffffffffff021916908373ffffffffffffffffffffffffffffffffffffffff1602179055505b80806115359061241d565b9150506113ce565b5050505050565b6001818154811061155457600080fd5b906000526020600020016000915090505481565b60008054906101000a900473ffffffffffffffffffffffffffffffffffffffff1673ffffffffffffffffffffffffffffffffffffffff163373ffffffffffffffffffffffffffffffffffffffff16146115f6576040517f08c379a00000000000000000000000000000000000000000000000000000000081526004016115ed9061217e565b60405180910390fd5b80600360008473ffffffffffffffffffffffffffffffffffffffff1673ffffffffffffffffffffffffffffffffffffffff16815260200190815260200160002060006101000a81548160ff0219169083151502179055505050565b60056020528060005260406000206000915090508060000160009054906101000a900460ff16908060010154905082565b6000600254905090565b60008054906101000a900473ffffffffffffffffffffffffffffffffffffffff1681565b8060028190555050565b60006116cd6116c88461224a565b612219565b905080838252602082019050828560208602820111156116ec57600080fd5b60005b8581101561171c57816117028882611882565b8452602084019350602083019250506001810190506116ef565b5050509392505050565b600081359050611735816124c4565b92915050565b60008083601f84011261174d57600080fd5b8235905067ffffffffffffffff81111561176657600080fd5b60208301915083602082028301111561177e57600080fd5b9250929050565b60008083601f84011261179757600080fd5b8235905067ffffffffffffffff8111156117b057600080fd5b6020830191508360208202830111156117c857600080fd5b9250929050565b60008083601f8401126117e157600080fd5b8235905067ffffffffffffffff8111156117fa57600080fd5b60208301915083602082028301111561181257600080fd5b9250929050565b600082601f83011261182a57600080fd5b813561183a8482602086016116ba565b91505092915050565b600081359050611852816124db565b92915050565b600081359050611867816124f2565b92915050565b60008135905061187c81612509565b92915050565b60008135905061189181612520565b92915050565b6000602082840312156118a957600080fd5b60006118b784828501611726565b91505092915050565b600080604083850312156118d357600080fd5b60006118e185828601611726565b92505060206118f285828601611843565b9150509250929050565b6000806000806040858703121561191257600080fd5b600085013567ffffffffffffffff81111561192c57600080fd5b61193887828801611785565b9450945050602085013567ffffffffffffffff81111561195757600080fd5b6119638782880161173b565b925092505092959194509250565b6000806000806040858703121561198757600080fd5b600085013567ffffffffffffffff8111156119a157600080fd5b6119ad87828801611785565b9450945050602085013567ffffffffffffffff8111156119cc57600080fd5b6119d8878288016117cf565b925092505092959194509250565b600080604083850312156119f957600080fd5b600083013567ffffffffffffffff811115611a1357600080fd5b611a1f85828601611819565b925050602083013567ffffffffffffffff811115611a3c57600080fd5b611a4885828601611819565b9150509250929050565b600060208284031215611a6457600080fd5b6000611a7284828501611858565b91505092915050565b600060208284031215611a8d57600080fd5b6000611a9b8482850161186d565b91505092915050565b600060208284031215611ab657600080fd5b6000611ac484828501611882565b91505092915050565b6000611ad98383611b2d565b60208301905092915050565b6000611af18383611cd2565b60208301905092915050565b6000611b098383611cf0565b60208301905092915050565b6000611b218383611f98565b60208301905092915050565b611b368161239f565b82525050565b611b458161239f565b82525050565b6000611b56826122b6565b611b608185612316565b9350611b6b83612276565b8060005b83811015611b9c578151611b838882611acd565b9750611b8e836122e2565b925050600181019050611b6f565b5085935050505092915050565b6000611bb4826122c1565b611bbe8185612327565b9350611bc983612286565b8060005b83811015611bfa578151611be18882611ae5565b9750611bec836122ef565b925050600181019050611bcd565b5085935050505092915050565b6000611c12826122cc565b611c1c8185612338565b9350611c2783612296565b8060005b83811015611c58578151611c3f8882611afd565b9750611c4a836122fc565b925050600181019050611c2b565b5085935050505092915050565b6000611c70826122d7565b611c7a8185612349565b9350611c85836122a6565b8060005b83811015611cb6578151611c9d8882611b15565b9750611ca883612309565b925050600181019050611c89565b5085935050505092915050565b611ccc816123b1565b82525050565b611cdb816123bd565b82525050565b611cea816123bd565b82525050565b611cf9816123c7565b82525050565b611d08816123c7565b82525050565b6000611d1b60478361235a565b91507f746865207469636b6572732061727261792070617373656420686173206c656e60008301527f6774682030204f5220646966666572656e742073697a6520746f205f74696b7360208301527f20617272617973000000000000000000000000000000000000000000000000006040830152606082019050919050565b6000611da760558361235a565b91507f546865205f61646472657373657320617272617920706173736564206861732060008301527f6c656e6774682030206f72206973206e6f74206f66207468652073616d65206c60208301527f656e67746820617320746865205f7469636b65727300000000000000000000006040830152606082019050919050565b6000611e33602c8361235a565b91507f6f6e6c79207468652061646d696e6973747261746f722063616e20646f20746860008301527f6973206f7065726174696f6e00000000000000000000000000000000000000006020830152604082019050919050565b6000611e9960278361235a565b91507f4f6e6c792061205072696365205265706f727465722063616e2075706461746560008301527f20707269636573000000000000000000000000000000000000000000000000006020830152604082019050919050565b6000611eff603a8361235a565b91507f5469636b6572732050726963657320616e64204d4373206172726179206d757360008301527f7420616c6c2068617665207468652073616d65206c656e6774680000000000006020830152604082019050919050565b6000611f65601d8361235a565b91507f546865726520617265206e6f206461746120746f2072657472696576650000006000830152602082019050919050565b611fa181612413565b82525050565b611fb081612413565b82525050565b6000602082019050611fcb6000830184611b3c565b92915050565b60006020820190508181036000830152611feb8184611ba9565b905092915050565b600060c082019050818103600083015261200d8189611ba9565b905081810360208301526120218188611c07565b905081810360408301526120358187611c65565b905081810360608301526120498186611c65565b9050818103608083015261205d8185611c65565b905081810360a08301526120718184611b4b565b9050979650505050505050565b60006020820190506120936000830184611cc3565b92915050565b600060c0820190506120ae6000830189611cc3565b6120bb6020830188611cff565b6120c86040830187611fa7565b6120d56060830186611fa7565b6120e26080830185611fa7565b6120ef60a0830184611b3c565b979650505050505050565b600060408201905061210f6000830185611cc3565b61211c6020830184611fa7565b9392505050565b60006020820190506121386000830184611ce1565b92915050565b6000602082019050818103600083015261215781611d0e565b9050919050565b6000602082019050818103600083015261217781611d9a565b9050919050565b6000602082019050818103600083015261219781611e26565b9050919050565b600060208201905081810360008301526121b781611e8c565b9050919050565b600060208201905081810360008301526121d781611ef2565b9050919050565b600060208201905081810360008301526121f781611f58565b9050919050565b60006020820190506122136000830184611fa7565b92915050565b6000604051905081810181811067ffffffffffffffff821117156122405761223f612495565b5b8060405250919050565b600067ffffffffffffffff82111561226557612264612495565b5b602082029050602081019050919050565b6000819050602082019050919050565b6000819050602082019050919050565b6000819050602082019050919050565b6000819050602082019050919050565b600081519050919050565b600081519050919050565b600081519050919050565b600081519050919050565b6000602082019050919050565b6000602082019050919050565b6000602082019050919050565b6000602082019050919050565b600082825260208201905092915050565b600082825260208201905092915050565b600082825260208201905092915050565b600082825260208201905092915050565b600082825260208201905092915050565b600061237682612413565b915061238183612413565b92508282101561239457612393612466565b5b828203905092915050565b60006123aa826123f3565b9050919050565b60008115159050919050565b6000819050919050565b60007fffffffffffffffff00000000000000000000000000000000000000000000000082169050919050565b600073ffffffffffffffffffffffffffffffffffffffff82169050919050565b6000819050919050565b600061242882612413565b91507fffffffffffffffffffffffffffffffffffffffffffffffffffffffffffffffff82141561245b5761245a612466565b5b600182019050919050565b7f4e487b7100000000000000000000000000000000000000000000000000000000600052601160045260246000fd5b7f4e487b7100000000000000000000000000000000000000000000000000000000600052604160045260246000fd5b6124cd8161239f565b81146124d857600080fd5b50565b6124e4816123b1565b81146124ef57600080fd5b50565b6124fb816123bd565b811461250657600080fd5b50565b612512816123c7565b811461251d57600080fd5b50565b61252981612413565b811461253457600080fd5b5056fea2646970667358221220aa75eb3de16f384b56c310fe3067303ffb89e27f895349547365c9789e62416064736f6c63430008000033",
  "immutableReferences": {},
  "source": "// SPDX-License-Identifier: MIT\npragma solidity 0.8.0;\n\ncontract ntt54_Oracle {\n\n  address public admin;\n  bytes32[] public tickers;     \n  uint lastUpdateBlockNum;    \n\n  struct Data {\n    bytes8 tik;\n    uint timestamp;\n    uint last_price;\n    uint marketCap;\n    address tokenAddress;\n  }\n\n  struct Ticker {\n    bool active;\n    uint index;\n  }\n\n  mapping(address => bool) public priceReporters;\n  mapping(bytes32 => Data) data;\n\n  //e.g. activeTicker[\"bitcoin\"] => true,2 if we are tracking this and is in 3rd place in the tickers array\n  mapping(bytes32 => Ticker) public activeTicker;    \n\n  constructor(address _admin) {\n    admin = _admin;\n  }\n\n  modifier onlyAdmin {\n    require(msg.sender==admin,\"only the administrator can do this operation\");\n    _;\n  }\n\n  function getLastUpdateBlockNum() public view returns(uint) {\n    return lastUpdateBlockNum;\n  }\n\n  function _setLastUpdateBlockNum(uint _lastUpdateBlockNum) private {\n    lastUpdateBlockNum = _lastUpdateBlockNum;\n  }\n\n  function getTickers() public view returns(bytes32[] memory) {\n    return tickers;\n  }\n\n  function approvePriceReporter(address price_reporter, bool approved) external onlyAdmin {\n    priceReporters[price_reporter] = approved;\n  }\n\n  function updateTickers(bytes32[] calldata _tickers, bytes8[] calldata _tiks) external onlyAdmin{\n    require(_tickers.length > 0 && _tickers.length == _tiks.length,\"the tickers array passed has length 0 OR different size to _tiks arrays\");\n   \n    for (uint i=0; i < _tickers.length; i++ )\n    {\n      if (activeTicker[_tickers[i]].active == false)\n      {\n        activeTicker[_tickers[i]].active = true;\n        activeTicker[_tickers[i]].index = tickers.length;\n        tickers.push(_tickers[i]);\n        data[_tickers[i]].tik = _tiks[i];\n      }\n    }\n\n  }\n\n  function updateTokenAddresses(bytes32[] calldata _tickers, address[] calldata _addresses) external onlyAdmin  {\n    require(_addresses.length > 0 && _tickers.length == _addresses.length,\"The _addresses array passed has length 0 or is not of the same length as the _tickers\");\n   \n    for (uint i=0; i < _addresses.length; i++ )\n    {\n      if (activeTicker[_tickers[i]].active == true)\n      {\n        data[_tickers[i]].tokenAddress = _addresses[i];\n      }\n    }\n     \n  }\n\n  function removeTicker(bytes32 _removeTicker) external onlyAdmin {\n      if (activeTicker[_removeTicker].active == true)\n      {\n        activeTicker[_removeTicker].active = false;\n        uint newIndex = activeTicker[_removeTicker].index;  \n        tickers[newIndex] = tickers[tickers.length-1];\n        activeTicker[ tickers[newIndex] ].index = newIndex;\n        tickers.pop();\n        delete data[_removeTicker];\n      }\n  }\n\n  function updateData(uint[] memory prices, uint[] memory mcs) public {\n    require(priceReporters[msg.sender]==true,\"Only a Price Reporter can update prices\");\n    require(tickers.length==prices.length && tickers.length==mcs.length,\"Tickers Prices and MCs array must all have the same length\");\n    \n    _setLastUpdateBlockNum(block.number);\n    uint blockTimestamp = block.timestamp;\n    \n    for(uint i=0; i < tickers.length; i++) {\n      data[tickers[i]].timestamp  = blockTimestamp;\n      data[tickers[i]].last_price = prices[i];\n      data[tickers[i]].marketCap  = mcs[i];\n    }\n\n  }\n\n  function getData(bytes32 ticker) public view returns(bool tickerExists, bytes8 tik, uint timestamp, uint last_price, uint marketCap, address tokenAddress) {\n    if (data[ticker].timestamp==0) {\n      return(false, \"\", 0, 0, 0, address(0));\n    }\n    \n    return (true, data[ticker].tik, data[ticker].timestamp, data[ticker].last_price, data[ticker].marketCap, data[ticker].tokenAddress);\n  }\n\n  function getAllData() public view returns(bytes32[] memory, bytes8[] memory, uint[] memory, uint[] memory, uint[] memory, address[] memory) {\n      uint tickerLength = tickers.length;\n      require(tickerLength > 0,\"There are no data to retrieve\");\n      bytes8[] memory tiks = new bytes8[](tickerLength);\n      uint[] memory timestamp = new uint[](tickerLength);\n      uint[] memory prices = new uint[](tickerLength);\n      uint[] memory mcs = new uint[](tickerLength);\n      address[] memory tokenAddresses = new address[](tickerLength);\n\n      bytes32 ticker;\n      for (uint i=0; i < tickerLength; i++) {\n        ticker = tickers[i];\n        tiks[i] =  data[ticker].tik;\n        timestamp[i] =  data[ticker].timestamp;\n        prices[i] = data[ticker].last_price;\n        mcs[i] = data[ticker].marketCap;\n        tokenAddresses[i] = data[ticker].tokenAddress;\n      }\n\n      return(tickers,tiks,timestamp,prices,mcs,tokenAddresses);\n  }\n\n \n}",
  "sourcePath": "/Users/angelos-imac/Dropbox/Cryptos/Darwinia/ntt54_Oracle/ntt54_Oracle_truffle/contracts/ntt54_Oracle.sol",
  "compiler": {
    "name": "solc",
    "version": "0.8.0+commit.c7dfd78e.Emscripten.clang"
  },
  "schemaVersion": "3.4.5",
  "updatedAt": "2022-02-24T11:56:05.834Z",
  "networkType": "ethereum",
  "devdoc": {
    "kind": "dev",
    "methods": {},
    "version": 1
  },
  "userdoc": {
    "kind": "user",
    "methods": {},
    "version": 1
  }
}